:020000040800F2
:1000000040430020F57E0008054A0008074A000822
:10001000094A00080B4A00080D4A000800000000C9
:100020000000000000000000000000000F4A00086F
:10003000114A000800000000134A0008154A000891
:100040001F7F0008237F0008277F00082B7F000800
:100050002F7F0008337F0008377F00083B7F0008B0
:100060003F7F0008437F0008477F00084B7F000860
:100070004F7F0008537F0008577F00085B7F000810
:100080005F7F0008637F0008334A0008677F00082D
:100090006B7F00086F7F0008737F0008777F000880
:1000A0007B7F00087F7F0008837F0008877F000830
:1000B0008B7F00088F7F0008937F0008977F0008E0
:1000C0009B7F00089F7F0008A37F0008394A000833
:1000D000A77F0008AB7F00083F4A0008AF7F0008F9
:1000E000B37F0008B77F0008BB7F0008BF7F000810
:1000F000C37F0008C77F0008CB7F0008CF7F0008C0
:10010000D37F0008D77F0008DB7F0008DF7F00086F
:10011000454A0008E37F00084B4A0008E77F0008D3
:10012000514A0008EB7F0008EF7F0008F37F0008CA
:10013000F77F0008FB7F0008FF7F000803800008AE
:10014000078000080B8000080F800008138000085B
:10015000178000081B8000081F800008238000080B
:10016000278000082B8000082F80000833800008BB
:10017000378000083B8000083F8000080000000036
:1001800043800008478000084178007807E0C17884
:10019000827842EA01224178007841EA022140EA6D
:1001A000012070470170090A417070470170090A07
:1001B0004170090A8170090AC17070472AB111F8AB
:1001C000013B00F8013B521EF9D17047521E00F866
:1001D000011BFBD1704702781AB18A4218BF401C3C
:1001E000F9D110467047F0B5024600230024844D33
:1001F00005EB0416306880B11768B84202BF70681A
:100200009768B84202BFB0685669B04206D1022C66
:100210000AD193B9022905D10FE00123641C022CF5
:10022000E6D3F4E71220F0BD29B905EB041082896A
:10023000B2F5807F01D11020F0BD0020F0BDF8B5EF
:100240004369846805686E4E0022170156F807C09E
:10025000AC4502BF06F1040C5CF807C0A44502BF20
:1002600006F1080C5CF807709F4202D0521C012A6C
:10027000EBD9022A11D133680022002B1EBF0122C4
:100280003369002B0ED11301F7183D607C6006F135
:1002900008044069E0500020B88106EB02139889F9
:1002A00029B108B10020F2BD4FF4807000E0401C7D
:1002B0009881501CF2BD18B5401E022813D20001CF
:1002C0004F490A189389B3F5807F01D01C0002D1F1
:1002D0000023938103E05B1E93819BB20BB9002244
:1002E0000A50002012BD022012BD10B50021444A60
:1002F0000B01D458844204BF0024D450491C012966
:10030000F6D910BDF8B505460024E878A0B16E6BAB
:1003100000F014F808B101240EE0E870A86A296A18
:10032000301A884208D2AF7804E0286A861900F0B3
:1003300005F87F1E012FF8D82046F2BD687801230A
:10034000324605F1380101F093BC70B504460D4604
:10035000606B0026854210D02046FFF7D3FF0600D1
:100360000BD1607801232A4604F1380101F07AFCB0
:1003700010B14FF0FF3501266563304670BD38B5CA
:100380000446FFF7BFFF050037D12078032804BFDC
:10039000217901292AD1A289002104F13800FFF72F
:1003A00015FF4AF6552104F23620FFF7FBFE1549EA
:1003B00004F13800FFF7FAFE134904F50770FFF760
:1003C000F5FEA16904F50870FFF7F0FE616904F518
:1003D0000970FFF7EBFE626A6078521C62630123CA
:1003E00004F1380101F044FC002020710022607803
:1003F000002101F04BFC00B10125284632BD000070
:10040000003F00205252614172724161C269891EEF
:10041000921E914201D3002070474289006B02FB7B
:100420000101084670472DE9F0410C460568022C91
:1004300052D3E86984424FD2287801284FF0FF3622
:1004400004D049D3032838D02CD345E0A889A96A21
:1004500004EB5408B8FBF0F000F0DAF800283CD1C7
:10046000A88908F10107B8FBF0F100FB118805F13C
:100470003801B7FBF0F011F80880A96A00F0C8F85D
:1004800000282AD1A889B7FBF0F100FB117705F10C
:100490003800C15D48EA0126E00754BFC6F30B06E9
:1004A00036091AE000F0AFF8B8B9A889640000F086
:1004B00017F8FFF769FE06460FE0AA89A96A9208B5
:1004C00000F0A4F848B9A889A40000F009F8FFF7E3
:1004D0005EFE20F0704600E001263046BDE8F08167
:1004E000B4FBF0F100FB114405F1380020447047E3
:1004F0002DE9F8430C460227022C0546164605D383
:10050000E86984427CD22878012804D078D3032873
:1005100052D040D374E0A889A96A04EB5409B9FB0E
:10052000F0F000F075F80028074669D1A88909F1B4
:100530000108B9FBF0F100FB119905F138004844BE
:10054000E10743BF017801F00F0141EA061131468E
:1005500001700120E870A889A96AB8FBF0F000F0EA
:1005600057F8002807464BD1A889B8FBF0F100FBEB
:10057000118805F13800E107404448BF360906D428
:100580000178360A01F0F00106F00F060E430670FE
:100590000120E87034E000F036F8074680BBA889F7
:1005A0006400B4FBF0F200FB124405F13800B1B274
:1005B0002044FFF7F7FD21E0AA89A96A920800F01C
:1005C00025F80746E0B9A889A400B4FBF0F100FBC8
:1005D000114005F138010844FFF7D9FDAA8926F03A
:1005E000704600F0704040EA0601B4FBF2F002FBF6
:1005F000104405F138002044FFF7D8FD0121E970CF
:100600003846BDE8F283AA89A96A5208B4FBF2F021
:100610004118284699E6F8B505460F462E68012F81
:10062000114629D9F069874226D229B14FF0FF320D
:1006300000F078F801001ED139462846FFF7F3FE96
:10064000040017D0012C17D014F1010F16D000228E
:1006500000F067F801000ED1F069B169821E914285
:1006600005D2491CB161317941F001013171274650
:100670008742E1D30020F2BD0220F2BD0120F2BD8D
:100680002DE9F04180460C00D8F8006006D175696C
:1006900015B1F06985420ED301250CE0FFF7C3FECA
:1006A000012898BF01203AD910F1010F37D0F16924
:1006B000884234D325462F46F0697F1C874202D3F7
:1006C0000227012D0BD939464046FFF7ACFE40B159
:1006D000012818BF10F1010F21D0AF42ECD100204A
:1006E0001DE04FF0FF3200F01CF820B924B13A466B
:1006F000214600F017F860B97761F169B069891E89
:10070000814224BF401EB061307940F00100307159
:1007100004E001280CBF4FF0FF3701273846BDE841
:10072000F08139463046E3E610B50368C06A9C891B
:10073000021D5889B1FBF4F1B1FBF0F003E08842EF
:1007400006D3401A083211680029F8D1002010BDE4
:100750005168081810BD2DE9FC4105460E462F686A
:10076000B6F5001F3CD216F01F0F39D1AC686E6190
:100770001CB93878032801DBFC6A2CB93989700967
:1007800088422DD2F86A26E07989B88900FB01F801
:1007900006E0022C24D3F869844221D2A6EB080695
:1007A0004645214615D32846FFF73DFE044614F181
:1007B000010FEED101200AE0B989B6FBF1F2101861
:1007C000E86101FB1266B819383028620020BDE8E4
:1007D000F68100F07EF8E861AC61E8690028EBD1B1
:1007E0000220F4E72DE9FC4106460C46756937689E
:1007F000F169203531B3B5F5001F23D2B889B5FBB7
:10080000F0F200FB1250002855D1491CF161B1698A
:1008100021B93989680988424DD311E07889401E91
:10082000024248D13046FFF7FEFD8046B8F1010F85
:1008300016D918F1010F34D0F869804536D31CB9A8
:100840000020F061042041E0B1693046FFF718FF55
:100850005FEA000808BF072038D0B8F1010F01D1C6
:10086000022033E018F1010F1BD03846FFF74AFD94
:10087000B8B9BA89002107F13800FFF7A7FC00F0EA
:1008800027F8002402E0786B641C401C78637889A8
:10089000844208D20120F8703846FFF733FD002863
:1008A000F1D0012012E0786B041B7C63C6F818803D
:1008B00000F00EF8F0617561B889B5FBF0F100FB4E
:1008C000115507F13800401930620020BDE8F6816B
:1008D000414638469AE570B504460D4605F11A00C2
:1008E000FFF752FC21780329064605D105F11400D3
:1008F000FFF74AFC46EA0046304670BD70B5044634
:100900000D461646B1B205F11A00FFF74BFC2178EF
:10091000032905D1310C05F11400BDE8704041E414
:1009200070BD7CB5164605461C460B22FFF746FCFB
:10093000062C14D310E036F8021B1020224601F0DA
:10094000010404EB42044908E20344BF84F4883400
:1009500084F02104401EF1D130880028EBD107201B
:1009600004F00F023032D2B23A2AA8BFD21D0DF8DD
:100970000020401E2409F3D17E220DF80020002221
:1009800000E0521C824202D2AB5C202BF9D113460C
:100990005A1C07289ABF1DF80040401C2024EC5424
:1009A000072AF4D973BD024600200B210306C001BB
:1009B00000EB536012F8013BC018491EF6D1C0B2DB
:1009C00070474046BDE8FE8F2DE9FE4F04460021EA
:1009D000206801902046FFF7BEFE5FEA00080BD1B9
:1009E000FF2000904FF0FF31FF252163E16901985E
:1009F000FFF7ABFC5FEA000877D1266A3078002861
:100A00004AD0F17A01F03F01E528A17163D00A07CD
:100A100045D50F295FD194F82F104A065FD44106BF
:100A200006D5717B009100F0BF0061692163054626
:100A3000E9B2884202BF0098717B88426BD101986D
:100A4000D0F8108006F11A00FFF79EFB002862D153
:100A5000377807F03F077F1E0D2047434FF0010B0B
:100A60004FF000090FF2982010F809003044FFF70A
:100A70008BFBBBF1000F824638D0FF2F4BD201F029
:100A800033F9834638F8170001F02EF97F1C8345AF
:100A900008BFD3462ED03EE04FF0040825E00F29D2
:100AA000B9D0EDB22DB9009D3046FFF77CFF8542ED
:100AB0001BD094F82F00C1070DD4226A04F124033F
:100AC0000B2112F8015B13F8010B281A491E01D003
:100AD0000028F6D048B14FF0FF30FF25206300F02A
:100AE0001CF85FEA00083FF481AF6AE74FF6FF7039
:100AF000824510D109F10109B9F10D0FB2D3307857
:100B0000410606D5BBF1000F1CBF38F817000028BE
:100B100001D16D1EE3E7FF25E1E70021204661E6F4
:100B20002DE9F84F054686B02868009095F82F10FB
:100B300011F0A00F18BF062040F0DD8001690027EA
:100B400000E07F1C31F817000028FAD10C2205F1D3
:100B5000240102A8FFF732FB02ACE07AC10724D5DA
:100B6000402185F82F100126DDF80080D8F81020EC
:100B7000334602A905F12400FFF7D3FE2846FFF70C
:100B800023FF5FEA000902D1761C642EEED3CDF874
:100B90000080642E08BF072000F0AD80B9F1040F7B
:100BA00040F0A880E07A85F82F00E07A810705D52B
:100BB0000C370D20B7FBF0F77F1C00E001272E68F3
:100BC00000F007FF010015D10024E9693046FFF766
:100BD000BCFB01000ED1286A0078E5281CBF002864
:100BE000002402D1641CBC4207D0012100F0F6FEB3
:100BF0000100EAD0042908BF07215FEA01095DD19D
:100C0000B7F101085DD06969A1EB481100F0E2FE7F
:100C10005FEA000952D105F12400FFF7C4FE8DF808
:100C200004004FF6FF7700F04AFF5FEA000945D164
:100C300000982C6A01699DF80400059160730021F9
:100C40000F20E0725FFA88F900202073A9F10106F5
:100C500004F11A00FFF7A6FA0D2046434FF0000AF0
:100C600001E0BB4503D0059830F816B0761C0FF2B2
:100C7000900010F80A0059462018FFF793FABBF1CC
:100C8000000F08BFBB460AF1010ABAF10D0FE8D305
:100C9000BB451DBF059830F81600002849F04009F3
:100CA00084F8009001210098C17000F096FE5FEA80
:100CB000000903D1B8F10108B5D102E05FEA0900EB
:100CC00018D100F0FCFE5FEA000913D1286A202247
:100CD0000021FFF77BFA286A0B2205F12401FFF7B8
:100CE0006DFA95F82F00296A00F0180008730120AA
:100CF0000099C870484607B0BDE8F08F00000000BA
:100D000001030507090E10121416181C1E0000001E
:100D10002DE9F34F81B080460E68D8F800100FF22D
:100D2000C81AD1F810900025002715E0FF2D80F09B
:100D3000D8800121104600F0B7FF040000F0D180F8
:100D4000802C06DA21465046FFF745FA002840F08D
:100D5000C88029F815406D1CF25D7F1C202A09DB34
:100D60002F2A18BF5C2AE1D1F05D2F2814BF5C2820
:100D70007F1CF9D09BE008F124060B22202130468D
:100D8000FFF724FA4FF00009504601E009F101098C
:100D900030F81910202918BF2E29F7D0B9F1000F0B
:100DA00018BF44F00304B846811E31F818102E29EC
:100DB00002D0B8F10108F7D14FF0000A002508274A
:100DC0000090A34600E08B46009830F8194009F1E6
:100DD000010974B1202C4BF00301F4D02E2C01D169
:100DE000C145F0D1BD4201D2C14534D10B2F26D12E
:100DF0008B463178E52904BF05223270082F08BFE1
:100E00004FEA8A0A0AF00C000C281ABF0AF0030104
:100E100003294BF0020B5FEA8B700BD40AF003003E
:100E2000012808BF4BF0100B0AF00C00042808BF83
:100E30004BF0080B86F80BB00020BDE8FE8FC145D3
:100E400018BF8B46C84521BFC14608250B274FEA6E
:100E50008A0AB9D2CDE7802C0EDB0021204600F0B3
:100E600023FF00281FBF0FF28C01081810F8804CD8
:100E7000002C4BF0020B05D00FF2F8002146FFF7D3
:100E8000AAF918B15F244BF0030B0DE0A4F1410067
:100E90001A2838BF4AF0020A06D3A4F161011A29C0
:100EA0003CBF4AF0010A203C74556D1C8CE7029946
:100EB000F0190860202AACBF00240424CA46284642
:100EC00040B1AAF1020131F81010202914BF2E29D7
:100ED000401EF5D0074600202AF81700002F7FF4A7
:100EE0004AAF0620A9E70000222A3A3C3E3F7C7F19
:100EF00000000000435545414141414345454549B6
:100F0000494941414592924F4F4F5555594F554F81
:100F10009C4F9E9F41494F55A5A5A6A7A8A9AAAB3E
:100F2000ACADAEAFB0B1B2B3B4414141B8B9BABBE8
:100F3000BCBDBEBFC0C1C2C3C4C54141C8C9CACB84
:100F4000CCCDCECFD1D145454549494949D9DADB48
:100F5000DCDD49DF4FE14F4F4F4FE6E8E85555558F
:100F60005959EEEFF0F1F2F3F4F5F6F7F8F9FAFB70
:100F7000FCFDFEFF2B2C3B3D5B5D000033B50446C2
:100F800081B0256802E00298411C02910298007825
:100F90002F2818BF5C28F6D00020A06002980178A6
:100FA000202919D2802284F82F2000212046FFF723
:100FB000D2FB014625E020BBA079C10620D560699F
:100FC000A989B0FBF1F201FB1200284400F13801BD
:100FD0002846FFF780FCA06002A92046FFF798FE94
:100FE00001000ED12046FFF7EFFC014694F82F00D8
:100FF0000A0000F00400DED0042908BF002800D158
:10100000052108463EBD03464FF0FF301A68002A0E
:1010100000D1704710B514462178202906D33A290B
:1010200018BF641CF8D101E0002010BD3A29FBD1A3
:1010300012F8011B30390A29F7D2A24208BF002951
:10104000F3D1611C0020196010BD1CB504460020BE
:10105000E0704FF0FF3060632046FFF776F908B18B
:10106000042016BD04F23620FFF78EF84AF655210B
:10107000884201D0032016BD04F138000178E92927
:1010800004D0EB2904BF8078902813D104F16E00BE
:10109000FFF77DF820F07F40DFF83415884207D055
:1010A00004F18A00FFF773F8DFF82815884201D1B0
:1010B000002016BD022016BD2DE9FF410E4600217D
:1010C00031601446FFF79FFF070048BF0B2007D48D
:1010D000DFF8048508F1040050F827500DB90C2002
:1010E00027E1356004F0FE04287848B1687800F004
:1010F000A1FDC10704D4002C01D040070DD417E195
:10110000002028706F70687800F09DFDC10748BF0F
:10111000032003D41CB1400701D50A2009E16878F7
:1011200005F10C02022100F0B1FD78BBA88900F0A6
:10113000CAFC2BD2421E104228D100212846FFF7BC
:1011400084FF002702281FD1002405EB041101F5BC
:10115000FB71087918B101F10800FFF718F84DF894
:101160002400641C042CF0D300265DF8264024B132
:1011700021462846FFF769FF00E00320022802DB32
:10118000761C042EF1D32746042801D10120D0E09B
:10119000022880F28A8005F14300FEF7F5FFA98955
:1011A000884210D105F14E00FEF7EEFF18B905F1A7
:1011B0005C00FEF7ECFF05F145012862CA78AA70D1
:1011C000012A18BF022A70D1504306460878688168
:1011D00001006AD0411E084267D105F14900FEF7BF
:1011E000D3FFA9892881490990FBF1F201FB120084
:1011F00000285AD105F14B00FEF7C6FF040004D1C8
:1012000005F15800FEF7C3FF044605F14600FEF75E
:10121000BBFF002849D0AA8929894FEA521C3318FC
:1012200091FBFCF2D3189C423FD36A89E41AB4FBC9
:10123000F2F2002A39D003244FF6F67C624538BF1B
:10124000022440F6F67C624538BF0124921CC01986
:10125000DB19032CEA616F62A8622B630FD105F1E1
:101260006200FEF791FF002804BF288900281CD1E6
:1012700005F16400FEF78BFFE96989000CE0A1B17C
:10128000A86AE9693018022C0FBF490001EB41023E
:1012900001F0010101EB5201E862AA89501E4118D8
:1012A000B1FBF2F0296A814201D20D2041E04FF0FA
:1012B000FF30A86168618020032C28712BD105F1D3
:1012C0006800FEF761FF012825D1791C2846FFF749
:1012D0003CF800BB287105F23620FEF755FF4AF6B0
:1012E0005521884217D105F13800FEF750FFBB4960
:1012F000884210D105F50770FEF749FFB8498842CA
:1013000009D105F50870FEF742FFA86105F50970DF
:10131000FEF73DFF68612C70B8F80000401CA8F88B
:101320000000E88008F1080028612846FEF7DDFF8C
:10133000002004B0BDE8F08170B5044609260D46D2
:10134000002C1CBF216800290DD0087858B1A28854
:10135000C888824207D1487800F06CFCC10702D4EB
:101360002068002600E000202860304670BD73B57C
:1013700082B0154600916846FFF745FE002848BF39
:101380000B201ED4944901EB8006746824B12046DA
:10139000FEF7ABFF00202070029810B900217160A9
:1013A00008E002990020087002987060029808B165
:1013B000012D01D0002004E0002202A903A8FFF7BC
:1013C0007BFE04B070BD2DE9F34104008EB008BF70
:1013D000092000F0FA8002F03F073A4669460FA85C
:1013E000FFF76AFE06001DD100980F99019001A831
:1013F000FFF7C4FD06000DD19DF83300010648BF7C
:10140000062607D417F0FE0118BF012101A8FEF738
:10141000EAFE064617F01C0F00F0B080300000F026
:10142000A380042E40F0CE806E48016800291EBFC4
:1014300000690028122603D101A8FFF771FB0646B8
:10144000300047F0080735D1380739D500F06CFE79
:101450000546099829460E30FEF7A8FE0998294648
:101460001630FEF7A3FE09982021C172DDF8248012
:1014700000984146FFF72FFA0546009800224146A2
:10148000FFF73CFA099800211C30FEF78FFE009808
:101490000121C17085B10098D0F8348000F00AFBBA
:1014A000060007D100984146FEF74FFF0646009818
:1014B0006D1E4561300056D1380748BF47F04007E0
:1014C0000098416B616217F0FE010998A06218BF95
:1014D000012101A8FEF7B3FE0028206142D0099D3A
:1014E00000982946FFF7F7F9A06005F11C00FEF708
:1014F0004EFEE0604FF480520020E06200982060D1
:101500000098C188A180002060752062A0612775C5
:10151000002104F13000FEF759FEB80654D5E56805
:10152000002D51D0A561009847898089A168474363
:10153000AF420CD22046FEF776FF014602292BD39C
:1015400011F1010F2BD0ED1B3000F1D025E0E1614E
:1015500000988089B5FBF0F200FB1250A0B300F0B8
:10156000C7F908BB02262DE09DF80A0010F0110F04
:1015700010D178077FF568AF082623E0300099D1B5
:101580009DF80A00C10648BF04261BD4B90793D5AD
:10159000C00791D5072615E00226E16112E04FF061
:1015A000FF300126E0610DE0009A9189B5FBF1F171
:1015B00008182062024600984078012300F001FAE2
:1015C00010B1012600202060304610B0BDE8F08147
:1015D0004641540046415433D83A002052526141AA
:1015E00072724161003F00202DE9FC470746994691
:1015F0000020C9F800008A46154669463846FFF7BC
:101600009BFE010001D1787D010040F09480387D7F
:10161000C10758BF072040F18E80F868BC69041BE1
:10162000AC4248D92C4646E0F9693846FEF7FBFE45
:101630000228C0F0828010F1010F00F08180F86173
:10164000F96900F055F9060077D02E1800988189C5
:10165000B4FBF1F8B8F1000F41D0408908EB050167
:10166000884238BFA0EB05080098407843463246D0
:10167000514600F0F7FA002862D1387D01060CD5FA
:10168000386A861B464508D200988289564307F17E
:1016900030010AEB0600FEF791FD0098858908FBF2
:1016A00005F5B8692818B861AA44D9F800002818C7
:1016B000C9F80000641B002C3CD000F010F920BBDE
:1016C00000984289521E1540BAD109B9B868AFE7EF
:1016D000F86A0028A8D03846FFF726F8A8E73A6A43
:1016E000B24211D0387D010605D5009800F003F90B
:1016F00030BB00F0EFF8012300984078324607F144
:10170000300100F0AFFAD8B93E62009AB969928907
:10171000B1FBF2F35343501A18182546844288BF90
:10172000054607F13000C91A01442A465046FEF723
:1017300045FDB6E70020BDE8F68702207875FAE798
:101740000120FBE72DE9FC47074698460020C8F832
:1017500000008946144669463846FFF7EDFD010052
:1017600001D1787D010040F0AE80387D810758BFFF
:10177000072040F1A880B869211881425DD24FF05E
:10178000FF310C1A59E0F9693846FEF779FF002855
:1017900054D0012816D010F1010F00F09980B968DB
:1017A000F86101B9B860387D010607D500983A6A3A
:1017B00000F0A1F800281CD100F08CF8F96900F0C5
:1017C00097F8002800F0818005EB000A00988189D5
:1017D000B4FBF1F6002E46D040897119884238BF1B
:1017E000461B0098407833465246494600F040FA7E
:1017F00000286DD1386AA0EB0A01B1420BD20098E3
:10180000828902FB01F009EB000107F13000FEF7CD
:10181000D5FC00F05FF8009885897543B869F968D0
:1018200028188142B86138BF0146F960A944D8F848
:1018300000002818C8F80000641B002C3ED000F0FF
:101840004EF810BB00984289521E1540ABD119B911
:10185000B86800289BD197E7F86A002893D03846EB
:10186000FEF762FF93E7386A50450CD0B869F96813
:10187000884208D2009840780123524607F130018F
:1018800000F0F0F920BBC7F820A00099BB69898956
:10189000B3FBF1F64E43C81A30182546844288BF80
:1018A000054607F130009B1B2A4649461844FEF7BF
:1018B00085FC387D40F080003875AFE7387D40F01A
:1018C000400038750020BDE8F68702207875FAE7F9
:1018D0000120FBE7387D00F07F00387570470098E5
:1018E000B9698089B1FBF0F500FB1510704701461E
:1018F0000098FEF78BBD4078012307F1300100F01E
:10190000B7B97CB500F061F8010034D1217D4A06F9
:1019100031D5080606D500F033F808B1012076BDB0
:1019200000F04AF800F000FC0546616A00F0C8F8D3
:10193000010020D1A66AF07A40F02000F072314612
:10194000A2682068FEF7DAFFE16806F11C00FEF7E6
:101950002DFC294606F11600FEF728FC002106F1B1
:101960001200FEF71FFC0099012000F005F8217D10
:1019700001F0BF01217576BDC8700098FEF7FFBC6D
:101980000098226A4078012304F1300100F070B918
:101990001CB50446FFF7B5FF01000CD1694620468F
:1019A000FFF7CAFC010006D12069FEF784FC0100A4
:1019B00004BF0021216016BD207D00F07F0020754E
:1019C000704704F1300100F04DB904466946FFF755
:1019D000B3BC00212846FEF7BEBE00212846FEF714
:1019E00001BF2DE9F14F86B00F461446002269462B
:1019F00006A8FFF761FB804660BB00982060009955
:101A00000098CC698069A21E824228BF386021D22A
:101A1000084600260178012922D10224019021469E
:101A200001A8FEF700FD10F1010F09D0012814D024
:101A300000B9761C0098C169641C8C42EFD301E0A8
:101A40004FF001083E60009886610099087940F0E7
:101A5000010008714046FFF74EB94FF00208F1E768
:101A6000D0F828900AE0FEF792FB000108BF564626
:101A70000BF1040B2D1F641EE4D065B90098494694
:101A8000FEF763FC0028804609F10109DAD10098CD
:101A9000858900F1380B00980178022906F1010AC6
:101AA0005846E0D1FEF770FB00B956460BF1020B29
:101AB000AD1EE0E70022294601A8FEF7ACBDE969AA
:101AC0000098FEF742BCA0F5007140F60162914219
:101AD00070472DE9FC410546904600242F464E1ED6
:101AE000B44211DA01AB012269464046FFF77CFDA2
:101AF0000198012808D19DF800000D28F2D0641C3F
:101B00000A2807F8010BEBD10020387004B9002532
:101B10002846BDE8F6817CB50D4604460A2D04BF73
:101B20000D21FFF7F8FF6668002E16D404F10C00B3
:101B30008555761C3D2E0CDB20686B46324604F141
:101B40000C01FFF7FFFD0098B0420CBF00264FF0DC
:101B5000FF36A0686660401CA06073BD1CB50446DB
:101B60006268002A0DD420686B4604F10C01FFF76F
:101B7000E9FD002802BF60680099884201D1A06891
:101B800016BD4FF0FF3016BD01600021416081603D
:101B9000704718B593B004466846FFF7F5FF04E0B8
:101BA00014F8011B6846FFF7B6FF20780028F7D12C
:101BB0006846FFF7D3FF14B010BDF0B402461068BA
:101BC00095681318506803EB5004C00721D54D44A5
:101BD0001FE0F0BC02F10C00704713F8017B05F820
:101BE000017B491EF9D1A0B1B60813F8011B06F01C
:101BF0000306032E08BF13F8016B01EB06214942CF
:101C0000801C294405D011F8016B05F8016B401EBA
:101C1000F9D1A342DDD013F8016B16F0030104BF24
:101C200013F8011BC91C30090F28DAD113F8010B76
:101C30000F30D6E701461B4A501802EB81014A6873
:101C4000007A51680847174B02460020995C41B959
:101C50000120985403EB820198184A68007A1368AF
:101C60001847704738B500F009F8AC68A04732BD96
:101C700038B500F003F8EC68A04732BD0446094DC2
:101C8000281905EB84046568007A704710B503468F
:101C9000044CE01804EB83035C68007A2369BDE818
:101CA00010401847203F0020802800DA704718B500
:101CB0000FF2AC0351B1B0F5807F01DB002012BD03
:101CC00003EB4000A0F58071088812BD33F8114085
:101CD000A04203D0491C89B28029F7DB01F18000C2
:101CE00000F0FF0012BD000070B5B0F5805FACBF22
:101CF0000FF260340FF2681402E00AB904EB4504F5
:101D0000218851B3884228DB65882A0205F0FF0547
:101D1000241D120C6E18B042EFDA082A1DD8DFE835
:101D200002F005090E10121416181A00431A34F89E
:101D3000130012E0411A01F00101401A0DE01038C1
:101D40000BE0203809E0303807E01A3805E00830A9
:101D500003E0503801E0A0F5E35080B270BD000010
:101D6000C700FC00E900E200E400E000E500E70055
:101D7000EA00EB00E800EF00EE00EC00C400C50054
:101D8000C900E600C600F400F600F200FB00F9000E
:101D9000FF00D600DC00F800A300D800D7009201B5
:101DA000E100ED00F300FA00F100D100AA00BA0052
:101DB000BF00AE00AC00BD00BC00A100AB00BB008A
:101DC00091259225932502252425C100C200C0003B
:101DD000A9006325512557255D25A200A5001025E2
:101DE000142534252C251C2500253C25E300C300A3
:101DF0005A25542569256625602550256C25A400A3
:101E0000F000D000CA00CB00C8003101CD00CE00E8
:101E1000CF0018250C2588258425A600CC00802518
:101E2000D300DF00D400D200F500D500B500FE00DD
:101E3000DE00DA00DB00D900FD00DD00AF00B400F9
:101E4000AD00B1001720BE00B600A700F700B80033
:101E5000B000A800B700B900B300B200A025A000F0
:101E600061001A03E0001703F8000703FF000100F8
:101E700078010001300132010601390110014A01E7
:101E80002E017901060180014D004302810182018A
:101E900082018401840186018701870189018A0109
:101EA0008B018B018D018E018F01900191019101B8
:101EB00093019401F60196019701980198013D0262
:101EC0009B019C019D0120029F01A001A001A20194
:101ED000A201A401A401A601A701A701A901AA01C9
:101EE000AB01AC01AC01AE01AF01AF01B101B20178
:101EF000B301B301B501B501B701B801B801BA0129
:101F0000BB01BC01BC01BE01F701C001C101C2019E
:101F1000C301C401C501C401C701C801C701CA0189
:101F2000CB01CA01CD011001DD0101008E01DE01EE
:101F30001201F3010300F101F401F401F801280199
:101F4000220212013A020900652C3B023B023D02CB
:101F5000662C3F0240024102410246020A0153023E
:101F6000400081018601550289018A0158028F01D2
:101F70005A0290015C025D025E025F0293016102FF
:101F8000620294016402650266026702970196018B
:101F90006A02622C6C026D026E029C017002710278
:101FA0009D01730274029F01760277027802790222
:101FB0007A027B027C02642C7E027F02A6018102EF
:101FC0008202A9018402850286028702AE014402D0
:101FD000B101B20145028D028E028F029002910280
:101FE000B7017B030300FD03FE03FF03AC03040002
:101FF0008603880389038A03B1031103C203020025
:10200000A303A303C4030803CC0303008C038E03C0
:102010008F03D8031801F2030A00F903F303F40352
:10202000F503F603F703F703F903FA03FA033004A1
:10203000200350041007600422018A043601C10401
:102040000E01CF040100C004D00444016105260440
:10205000000000007D1D0100632C001E9601A01EE3
:102060005A01001F0806101F0606201F0806301F11
:102070000806401F0606511F0700591F521F5B1F0D
:10208000541F5D1F561F5F1F601F0806701F0E0044
:10209000BA1FBB1FC81FC91FCA1FCB1FDA1FDB1FF8
:1020A000F81FF91FEA1FEB1FFA1FFB1F801F08060E
:1020B000901F0806A01F0806B01F0400B81FB91F14
:1020C000B21FBC1FCC1F0100C31FD01F0206E01FA0
:1020D0000206E51F0100EC1FF21F0100FC1F4E214C
:1020E0000100322170211002842101008321D024BB
:1020F0001A05302C2F04602C0201672C0601752C68
:102100000201802C6401002D260841FF1A03000003
:1021100010B5034C0348211D00F024F8207010BDB9
:102120002C3F0020B82100200020704730B50E4D14
:102130006B7A04460120A3B96B7A0020E854687AD0
:1021400005EB80035C60687A28440272687A421C5E
:102150006A72303008703A2048702F208870002052
:10216000C87030BD0022E1E7203F00202DE9F84F84
:102170000FF2B019A2B0D9E90045CDE900452C9E77
:10218000DFF80C9C04918DF8436000210FF29C1441
:102190000D9112944FF0FF36824615461F460FE010
:1021A000AB4644461BF8011B0498D0470028049016
:1021B00000F0A6800D98401C641E0D90F2D145449D
:1021C0002878252807D100210791089109910A91C3
:1021D0000B910C910FE06A463146284600F0C4FF8F
:1021E0005FEA000801D10D98A4E0D9D54FF00108AD
:1021F000E5E741F0010115F8010F2028F9D0232867
:102200000CD02B2804D02D2805D0302809D079E017
:1022100041F00201EFE741F00401ECE741F0080171
:10222000E9E741F01001E6E700200F9009E00F9880
:10223000484505DA00EB800302EB4302303A0F9287
:102240006D1C2A78A2F130000A28F0D32A782E2AB1
:1022500018BF0E9623D115F8010F2A2807D1386828
:1022600038606D1C50F8042B38600E9217E02D2852
:102270000CBF15F8010B002000220E920AE040B9B5
:102280000E9A4A4505DA02EB820403EB4403303B25
:102290000E936D1C2B78A3F130020A2AEFD3ADF810
:1022A00040101298297800F06BFF08B115F8010B67
:1022B0008DF842009DF84200682804BF29786829FB
:1022C00003D162208DF8420007E06C2804BF287813
:1022D0006C2803D171218DF842106D1C13A8069053
:1022E0003A4615F8013B02A9504600F063F838B9A8
:1022F00013AA02A9504600F0C5F900287FF560AF87
:10230000304617E02A288FD13A683A6052F8040B19
:102310003A6000280F9003D540420F9041F004012D
:102320006D1C93E70000000000000000686A6C74F8
:102330007A4C000023B0BDE8F08F622820D06828D6
:1023400011D06A2803D06C2827D0712825D10868BD
:10235000C01D20F007000860D0E9002308300860A5
:10236000194610467047002A0A680A60106803D0B0
:10237000121D0A6000B217E0121D0A6080B217E059
:10238000002A0A680A60106803D0121D0A6040B271
:102390000AE0121D0A60C0B20AE0002A0A680A6058
:1023A000106803D0121D0A60C1177047121D0A6021
:1023B000002170477CB50D4611461C462E69B4F1CC
:1023C000250200F04D811C3A00F08680121F022A7F
:1023D00040F282800E3A00F00781521F5AD0093A2B
:1023E0007AD0921E16D0521E35D0521E022A73D9B0
:1023F000121F30D0521F00F09A80521E4AD0521E37
:1024000000F0E480D21E00F0FD80921E42D0D21E69
:1024100040D02BE195F83A206C2A09D06869421C1B
:102420006A610A680A6052F8043B0A60335427E183
:102430000A680A6052F8043B0A6000210093019187
:102440004FF0FF322A6329466A4600F096F90028C9
:1024500040F1168101E195F83A000122FFF76DFF86
:10246000C5E900010023994204DA6869411C6961E9
:102470002D210DE0288F810704D56869411C696111
:102480002B2105E0C00722D56869411C6961202124
:1024900031541CE095F83A000022FFF74EFFC5E9E1
:1024A000000195F83800010711D5D5E90023002077
:1024B000834208BF82420AD044F02000782806D127
:1024C000686930213154401C411C696134542146F3
:1024D00068693044E86083E00868C01D20F00700A8
:1024E0000860D0E9002308300860C5E90023D5E979
:1024F0000001C80F04D06869411C69612D210DE0FD
:10250000288F810704D56869411C69612B2105E08A
:10251000C00704D56869411C69612021315468698C
:102520003044E8602146284600F032FAA8E005F180
:102530003A02507820B14FF0FF340FF6FC2070E0E3
:102540001078622808D0682824D06A2812D06C2815
:102550002ED071280ED02BE00A680A6052F8040BC6
:102560000A6020B94FF0FF340FF6E42059E0E96A21
:10257000017085E00A680A6052F8040B0A6020B90D
:102580004FF0FF340FF6C8204BE0EA6AD317C0E9DA
:10259000002375E00A680A6052F8040B0A6020B94B
:1025A0004FF0FF340FF6A8203BE0E96A018067E0B6
:1025B0000A680A6052F8040B0A6020B94FF0FF3431
:1025C0000FF68C202DE0E96A016059E00A680A6084
:1025D00052F8040B0A600021C5E90001EE60782181
:1025E000284600F029F94BE06C2285F83A200B6868
:1025F0000B6053F8042B0B6052BB4FF0FF340FF607
:1026000084200EE095F83A206C2AF0D00868086023
:1026100050F8044B0860EC603CB94FF0FF340FF603
:10262000482000F0BDFD201A76BD2E6B002E04D58B
:10263000204600F0D7FD044608E03246002120463F
:1026400000F0ECFD002814BF041B3446AC6117E019
:10265000294600F092F8002812D54FF0FF3076BDE1
:102660006869411C69612521315409E06969481C88
:10267000686125227254210002D0411C69613454E2
:10268000002076BD2DE9F0410E460546716B70695C
:10269000B46A091A306A091AB069091A706A091A03
:1026A000F069091A96F838000C1B410790460DD4C2
:1026B000002C0BDD2746B0682021A8470028B06019
:1026C00057D0F06A401C7F1EF062F4D17369424615
:1026D0003146284600F099FC00284AD1376A002F7D
:1026E0000ADDB0683021A8470028B06041D0F06A08
:1026F000401C7F1EF062F4D1B369F268314628466F
:1027000000F083FCA8BB776A002F09DDB068302198
:10271000A847B06068B3F06A401C7F1EF062F5D134
:10272000F068B169F36942183146284600F06DFC43
:10273000F8B9B76A002F09DDB0683021A847B0604A
:10274000B8B1F06A401C7F1EF062F5D196F83800EF
:1027500041070BD5002C09DDB0682021A847B060E7
:1027600038B1F06A401C641EF062F5D10020BDE86B
:10277000F0814FF0FF30BDE8F0812DE9F8470D46BC
:10278000A3B02F6B002F8146904648BF6FF00047E3
:1027900000F070FD696B40180FF604118128D1E933
:1027A0000023CDE9012328BF4FF0FF303ED20024A3
:1027B000002F2FDDD8F8001001AA684600F0D6FCE3
:1027C0000646002E35D4D8F8000008B9761E30D45D
:1027D000B7421FDB6869301881280AD3002068637C
:1027E00003AA29464846FFF74DFF040012D40020F3
:1027F000686103A8D5F814A032466946504400F039
:102800003FFDB244C5F814A058F8040B002818BFC7
:10281000BF1BCDD12CB903AA29464846FFF732FF8A
:10282000044614B9002068616863204624B0BDE8FE
:10283000F0874FF0FF34F8E72DE9FC4704468A465D
:102840002569BAF16F0F08BF082605D04AF02001AC
:10285000782914BF0A2610263C27D4E90023BAF1B0
:10286000640F18BFBAF1690F9046994606D100214E
:102870008B4203DAD8F1000869EB49090020814551
:1028800008BF80451FD1206BE8B9082E4CD194F8C1
:102890003800010748D530203B2785F83B0043E04E
:1028A00000280ED594F8380000F01400102808D144
:1028B000626B6069121A206A121A511A0029C8BF85
:1028C0002162BDE8F3878DF800A0404649463246B4
:1028D000F31700F029FD3032D2B27F1E3A2A019759
:1028E00004DB9DF80000A0F151018A18EA5540462A
:1028F00049463246F31700F017FD8046894600200E
:10290000814508BF804503D0E068E9198842DCD3DF
:10291000082E09D194F83800010705D5E95D302962
:1029200002D07F1E3020E855C7F13C01A161E819B3
:10293000E060206B8142B3DA411A21624FF6EF70FA
:10294000218F01402187BDE8F3872DE9D04306465A
:102950000F4614464FF00008DFF8389412E0E00705
:1029600007D542464B463046394600F0F5FD06464F
:102970000F464046494642464B4600F0EDFD641086
:1029800080468946002CEAD130463946BDE8D083DE
:102990002DE9F34F054641F020048DB0D5E90089BB
:1029A000612C02AE09D0286B002848BF062003D452
:1029B00008BF672C01D101202863D5E90023580006
:1029C0004015401C0ED119030CD00320A8619DF8BE
:1029D000380061381A2802D20FF2CC6111E00FF2F0
:1029E000CC610EE058004015401C0FD119030DD1E9
:1029F0000320A8619DF8380061381A2814D30FF21B
:102A0000B461E868032200F03BFCD3E1194621F0F1
:102A10000043B3F5801F10460DD20027BB4208BF0C
:102A2000BA42019703D111E00FF28461E9E701AAEC
:102A300000F064FE0AE0DFF8607307EB1352DFF882
:102A40005C3301921940DFF858331943C5E900019E
:102A5000612C0ED1E86830210170811CE9609DF87D
:102A6000381061290CBF7821582141706869801C99
:102A70006861D5E900AB2BF0004300202AF000028A
:102A8000834204BF8242002300F05A81612C40F04F
:102A9000A980286B00284CBF2120401C0090404694
:102AA000009F7F1C49460022002300F05FFED946AC
:102AB00001988DF8082038BF89F00049001F019067
:102AC000002FD0460DF1090040F3498140F2FF711B
:102AD000DFF8D0B20C91064640464946002200235A
:102AE00000F05CFE80F03A814800400D00F11C02CD
:102AF00010D0002A0EDD0C98824205DB09F0004060
:102B000040EA0B01002013E0A448084040EA0251CB
:102B100040460DE029F00043002028F000028342E7
:102B200008BF82420FBF40461C22404600F04EFEC6
:102B30008046894600F0E8FEFF1F002F044609DDAD
:102B400000F000FF02460B464046494600F00CFFED
:102B500080468946F01D072104E004F00F0200F8CA
:102B6000012D2411002C01DD491EF6D5491E5CBF44
:102B7000002200F8012DF9D5ECE00020194602AA48
:102B80000A4400E05B1E12F80149491E8442F9D054
:102B90000F2804D10DF10900425C521C4254002957
:102BA00004D50198001D02AE5B1C0190591E12D481
:102BB0009DF838007218A0F13A04177830375FFAA0
:102BC00087F8B8F1390FC8BFA044491E02F801893F
:102BD000F3D58DF83800286B002840F1B080591EDD
:102BE0002963ACE0404649460022002300F0BEFDC8
:102BF000019938BF89F0004947F2975041436A4A2A
:102C000091FBF2F20192D2F1070204DD40464946FF
:102C1000FFF79BFE0AE0524200206449FFF795FE51
:102C200002460B464046494600F010FF8046662C9F
:102C3000286BDFF87CB106BF019F0A3706273F18D3
:102C4000142FC8BF142730208DF8080089460DF1D5
:102C5000090000E03046002F34DD06464046494674
:102C600001F018F801460A4606F1080304200A2676
:102C7000B2FBF6F606EB860EA2EB4E02303203F8FC
:102C8000012C0A22B6FBF2F202EB820EA6EB4E06F4
:102C90003036401E03F8026DE9D1083F002F03F1E2
:102CA0000806D7DD084601F009F802460B46404603
:102CB000494600F059FE00225B4600F04DFC80467C
:102CC0008946CBE70DF10901401A0DF1090604E030
:102CD0000199491E401E0191761C31783029F7D0A8
:102CE000662C02D10199491C03E0652C0CBF01211F
:102CF00000212B6BCB189842B8BF431E002B1ED46B
:102D0000834204DAF05C3528A8BF392000DA30208D
:102D10001946721E02EB010800E05B1E18F80199CB
:102D2000491E8145F9D0392802D1705C401C70548D
:102D3000002904D50198401C16465B1C019001989F
:102D400000B200901BB29DF838103246284600F0C1
:102D500034F82FE0C61D002F3FF7BEAE30460DF110
:102D60000901401A009903468842C8BF0B46002B50
:102D70000DF109063FF52FAF8342BFF6FEAE0DF110
:102D80000900C05C07287FF7F8AE0F20F6E60000C8
:102D9000CBCCCC0C0000244002FCFFFFFFFF0F80D7
:102DA0000000E03F0000F07FA08601000000F03F3F
:102DB00084D797410FB0BDE8F08F2DE9F84E83B06E
:102DC00006468B4692461C4600F0D2F9002C406A1B
:102DD000376B90F8009002DC01240FF2DC2ABDF979
:102DE00030504BF02000662808BF6D1C12D06728B9
:102DF00077D115F1040F7ADBBD4278DA96F8380006
:102E00006D1C010702D4BC42B8BF27462DB27F1B00
:102E100048BF00272DB2F068B169002D22DC4A1CA2
:102E200030234354002F03DC96F83800010703D504
:102E3000F06800F80290521CEF42B8BF7D422DB2FC
:102E4000EF196842A742B8BF3C46B261706224B233
:102E5000F461F068B36922465146184400F010FA54
:102E60003F1B18E02A469442084416DA224651468F
:102E700000F006FAB0692018B0612C1B002F7462B4
:102E800003DC96F838100A0705D5F16801F80090C0
:102E9000F069401CF061B762A0E0514600F0F0F923
:102EA000B0692818641B002F03DC96F838100A0755
:102EB00003D5F16801F80090401CB06124B2A7422C
:102EC000B8BF3C46F068B36924B222460AEB05015C
:102ED000184400F0D5F9B0692018B0613C1B746249
:102EE0007CE0BBF1610F14D14FF0700B16E0BC42D7
:102EF00004DA96F838100A0758BF27467F1E48BFE5
:102F00000027BBF1670F14BF4FF0450B4FF0650B67
:102F100004E0BBF1410F08BF4FF0500BB169F368FB
:102F2000481CB061002F1AF8012B5A5403DC96F8A4
:102F300038100A0717D5F168431CB36101F80090F7
:102F4000002F10DD641E24B2A742B8BF3C46F068D3
:102F500024B222465146184400F092F9B069201874
:102F6000B0613F1B7762F068B1690844002D80F8BA
:102F700000B003D42B214170811C03E02D2141704E
:102F80006D42811C00206A460AE02B460A2493FB0E
:102F9000F4F505EB8504A3EB440302F8013B401C68
:102FA0002DB2002DF1DC012806DC4BF02002652A51
:102FB00004BF302201F8012B48B9302001F8010B81
:102FC00007E0401E1DF80020303201F8012B0028D8
:102FD000F7DCF068B2691044091AF16196F838001C
:102FE00000F0140010280DD17169B0694118706AA1
:102FF0004118F0694118B06A4118706B8142BCBF3A
:10300000411A316204B0BDE8F08EF8B505460E46AF
:1030100017461C46002074B117F8011BB068A8477A
:10302000B06030B1F06A401CF0620020641EF3D141
:10303000F2BD4FF0FF30F2BD7072696E74665F735F
:103040003A20256E20646973616C6C6F776564004B
:103050007072696E74663A2062616420256E206128
:103060007267756D656E74007072696E74665F73F9
:103070003A2062616420257320617267756D656E08
:10308000740000007072696E74665F733A2062614A
:103090006420256C7320617267756D656E74000025
:1030A00000000000000000006E616E004E414E0006
:1030B000696E6600494E46003000B1F5807F02D34C
:1030C0004FF0FF3070470170012070470078401EBC
:1030D0008041C043C00F7047613807E005E0A0F1B0
:1030E00061011A2901D20120704741381A28804114
:1030F000C00F7047A0F10901052901D3202801D193
:1031000001207047002070471B48704730B4536857
:10311000D418042B09DA41B1057804F8015B10F8E2
:10312000015B15B15B1C491EF3E7536030BC70476F
:1031300038B514461D4661B1FFF7E8FF61686A6B58
:10314000204690476FF00102811A02D0491E03D039
:1031500005E06FF0010032BD4FF0FF3032BD0021BD
:10316000616032BDDA6B1047034BE1E7024BF9E7D0
:10317000024870470000000004220020CC210020FB
:103180000278C9B28A421AB11CBF10F8012FF9E7C0
:1031900018BF002070470268531C0360117070470D
:1031A00080B508B90FF21C0005490B681BB122223B
:1031B0000021984701E000F08EFD222002BD0000B2
:1031C000383F0020636F6E73747261696E7420689B
:1031D000616E646C65723A20626164206D65737320
:1031E0006167650000F10103810704D010F8011B3D
:1031F00089B18107FAD10268B2F10131914311F02E
:10320000803F04BF50F8042FF6E710F8011B11B1FE
:1032100010F8011BFBE7C01A70470000C9B2830712
:1032200006D0521E22D310F8013B9942F7D11FE07D
:10323000083A13D302F1040241EA012141EA0141B3
:1032400050F8043B121F21BF4B40A3F1013C2CEA74
:10325000030C1CF0803FF3D0C9B2001F083210F8F5
:10326000013B521E28BF91EA030FF8D818BF012076
:10327000401E704780B5FFF747FF006C02BD00009D
:1032800062B38B0708D0521E11F8013B00F8013BD6
:1032900000F024808B07F6D1830740F0208000BF28
:1032A000103A07D330B4B1E83810103AA0E838101B
:1032B000F9D230BC530724BFB1E80810A0E80810C9
:1032C00044BF51F8043B40F8043BD20724BF31F817
:1032D000022B20F8022B44BF0B7803707047121F9B
:1032E00017D35B0009D151F8043B20F8023B1B0CBB
:1032F000121F20F8023BF6D20BE051F8043B00F815
:10330000013B1B0A20F8023B1B0C121F00F8013B7B
:10331000F3D238BF121D521E24BF11F8013B00F832
:10332000013BF8D870470000B3BBD9B1B2F5803F7C
:103330007DD2022A1ED98C46B1FBF2F102FB11C3E9
:103340001B0443EA1043B3FBF2FC02FB1C3380B2C4
:1033500040EA0343B3FBF2F002FB103240EA0C40B8
:1033600000237047022A05D98446B0FBF2F002FB25
:1033700010C270474AB105D100F0010249085FEA66
:103380003000704700220023704700F0A7BC0B00FC
:103390000200002100207047904271EB030CF6D32D
:1033A000B3F5803F2FD2F0B5B3FA83F7B1FA81F4C9
:1033B000A7F10F0E3D1B5340CEF1200602FA0EF28C
:1033C000F3415340B5F10F0746D80F3C2C44414020
:1033D000C4F12006A040F1414140B1FBF3F603FBEC
:1033E0001611A2FB0645001BA94102D2761E8018C9
:1033F000594180EA010221FA0EF362FA0EF200212D
:103400005A403046F0BD30B4B1FBF3FC03FB1C1155
:10341000A2FB0C45001BA94103D2ACF1010C8018A2
:10342000594130BC02460B46604600217047B2F15C
:10343000807F65D3F0B5B2FA82F7B1FA81F4C7F1B3
:103440000F063D1B22FA06F307F1110EF24120355B
:103450005A40B5F10F07B8D94140C4F12006A04049
:10346000F1414140B1FBF3FC03FB1C11A2FB0C45F5
:10347000001BA94103D2BCF1010C801859410F2F48
:1034800012D30F3FC90341EA5041B1FBF3F603FBEE
:103490001611A2FB0645D4EBC030A94102D2761E1C
:1034A0008018594146EACC3C07B34140C7F1200699
:1034B000B840F1414140B1FBF3F603FB1611A2FB0A
:1034C0000645001BA94102D2761E8018594180EAA8
:1034D000010221FA0EF3C7F1200462FA0EF20CFA8F
:1034E00007F05A402CFA04F13043F0BD80EA0102A3
:1034F00021FA0EF3002162FA0EF260465A40F0BD46
:103500008C46B1FBF2F102FB11C31B0243EA1063CC
:10351000B3FBF2FC02FB1C331B024CEA002043EA23
:103520001063B3FBF2FC02FB1C331B024CEA0020CD
:1035300043EA1063B3FBF2FC02FB1C331B024CEAB0
:10354000002043EA1063B3FBF2FC02FB1C324CEA9E
:103550000020002370470000B0B581EA030C0CF096
:10356000004C40F2FF7515EA11541DBF15EA1357C0
:10357000AC42AF4239E0E41923EA455343F48013E7
:10358000C90241F0004141EA505EC7021100A7FBA9
:10359000020200284FF00000EEFB01204FF0000176
:1035A000E3FB072118BF42F0010240180021494106
:1035B000E3FB0E01A4F580640F0302D252004041E8
:1035C000494154F101046CDD470872F1004250F1A9
:1035D000000051EB0451A1F580115CBF41EA0C01E0
:1035E000B0BD4CEA05510020B0BD05EA1357AC420E
:1035F00014BFAF4241E050EA410E1CBF52EA430EF5
:1036000002E061460020B0BD24423C441BD15FEA89
:10361000070EF6D0090302BF01460020AEF1140EDA
:10362000B1FA81F7AEEB070401FA07FE0C37C7F1D8
:10363000200100FA07F7C8404EEA000E23EA45537E
:1036400043F48013A2E733F00043B3FA83F704BFD7
:10365000B2FA82FE77440B3FE41BB7F1200E2FBF76
:1036600002FA0EF3BB40C7F1200E22FA0EFE38BF5D
:1036700043EA0E03BA40641C82E750EA410E14BFCD
:1036800052EA430E6FF000014FF4001717EB430F9F
:103690008ABF194617EB410FB5E74CEA05510020E8
:1036A000B0BDD4F10104B4F120070FDAC4F1200752
:1036B000520828BF42F0010210FA07F501FA07F795
:1036C000E1BF2A43E0403843E1400FE0352C98DC6D
:1036D000C7F1200452EA400220FA07F218BF42F074
:1036E000010231FA07F0A1400A43002172F10042C1
:1036F00050F1000051EB0C01B0BD000010B51446B4
:1037000000F002F8226010BDC1F30A5343B14A0031
:1037100012F5001F28D2A3F2FE32A1EB025170472E
:1037200050EA410C20D001F0004C31EA0C01B1FA12
:1037300081F204BFB0FA80F3D2180B3AB2F1200341
:103740002CBF00FA03F1914041EA0C013EBFC2F1E7
:10375000200C20FA0CF319439040524240F2FD3302
:10376000D21A01EB03517047002270474FF4001C3E
:103770001CEB410F94BF1CEB430F09E041EA030C23
:1037800050EA4C0C52EA0C0C03D2994208BF90420A
:10379000704714BF8B428242704700004FF4001CF8
:1037A0001CEB410F94BF1CEB430F09E041EA030CF3
:1037B00050EA4C0C52EA0C0C03D28B4208BF8242F6
:1037C000704714BF9942904270470000124254D48F
:1037D00040F2FF7C1CEA11530FD0634531D09B1897
:1037E00063453CBF01EB0251704701F0004141EAE3
:1037F0000C510020AFF30080704750EA410320D005
:1038000001F0004C91EA0C011CD0B1FA81F30B3BA2
:103810009A420DD9D21A994051EA0C01C3F1200CF9
:1038200020FA0CFC61449840531C40F2FF7CD7E71F
:10383000914041EA0C01C2F1200C20FA0CF319432B
:1038400090407047B0FA80F31533202BE0D3202A44
:10385000EED3203A203B9A4209D9D21A00FA03F15A
:1038600041EA0C010020531C40F2FF7CB8E700FA4B
:1038700002F141EA0C0100207047524240F2FF7C05
:103880001CEA11530DD06345DBD0B2EB030C3CBFF7
:10389000A1EB025170470CF1010221EA035141F4FE
:1038A000801150EA410CCCD001F0004C352A27DCC5
:1038B00030B481EA0C01B2F1200309DAC2F120032D
:1038C000044601FA03F5D0402843D1409C400CE067
:1038D000C3F12002450020FA03F418BF44F00104AC
:1038E00021FA03F091400C43002174F1004550F19E
:1038F000000051EB0C01244230BC7FF47BAF7047D9
:103900006146002076E70000C1F30A5340F2FE3220
:103910009B1A14DDD3F120034FEAE17208DDC902DE
:1039200041EA505141F00040D84080185040704763
:1039300003F2E13010B1D24382F000407047002022
:1039400070470000C11768B14840401AB0FA80F2D1
:103950009040D21CC907C2F5846241EA025202EBD0
:10396000D02140057047000070B44FF0004591EA47
:10397000030F40F1BD816B40841A71EB030603D243
:10398000001BB141121973414FF4001C1CEB410F95
:1039900034BF7CEB430442E00C0DA4EB1356352EF0
:1039A0004FDC45EAC323DB0A45EAC121C912B6F15F
:1039B00020050DDD63FA05F6EB4086EA03051242A9
:1039C00018BF45F00105C01851F100010CD213E0F9
:1039D00062FA06F5F2405540F3415A40B340F340D5
:1039E0005A408018594107D349085FEA30005FEA1E
:1039F000350528BF45F0010501F58011420875F134
:103A0000004250F1000041EB04514E0016F5001F3A
:103A100070BC38BF70470020090D090570471CEBCA
:103A2000410F10D252EA43060BD0BCEB410F05D830
:103A30000C0DAB43661E342EB6DD02E0AB4380189E
:103A4000594170BC704770BC70470000F0B540F23F
:103A5000FF7581EA030C0CF0004C15EA11541DBFF0
:103A600015EA1357AC42AF42E5E0BC41C1F3130184
:103A7000C3F31303801A994143F4801304D2641EE4
:103A80004000494180185941C90241EA5051B1FBF7
:103A9000F3F603FB1611A2FB0675D7EBC020A94174
:103AA00002D2761E80185941C90241EA5051B1FB39
:103AB000F3FE03FB1E11A2FB0E75D7EBC020A9413C
:103AC00003D2AEF1010E80185941890241EA9051AA
:103AD000760546EA8E2EB1FBF3F603FB1611A2FB28
:103AE0000675D7EB8020A94102D2761E8018594175
:103AF000C90241EA50514EEA060EB1FBF3F603FB50
:103B00001611A2FB0675D7EBC020A94102D2761E82
:103B100080185941C90241EA5051B1FBF3F703FB48
:103B20001711A2FB0735D3EBC020A94167F10007AD
:103B30000CBF004247F0010766F3D5274FEA1E315C
:103B4000B80814F5806412DDBD0775F1004250EB32
:103B50000E5051EB045111F5801F5CBF41EA0C017E
:103B6000F0BD4CF07F6141F0E0410020F0BDBD07A9
:103B70006D0840EA0E5041F48011D4F10104B4F113
:103B800020060ADAC4F120060200E04001FA06F33A
:103B9000E1401843B24015430EE0342C13DCC6F16B
:103BA000200445EA40056D0820FA06F2154321FA83
:103BB00006F0A1400D43002175F1004250F10000D4
:103BC00051EB0C01F0BD00205FEA0C01F0BDCFB954
:103BD00092185B41B3FA83F704BFB2FA82F6BF19B9
:103BE0000B3FB7F120062FBF02FA06F3BB40C7F127
:103BF000200622FA06F638BF3343BA401CB1E41956
:103C0000641E33E77F4231F00041B1FA81F404BF12
:103C1000B0FA80F6A4190B3CB4F120062FBF00FACD
:103C200006F1A140C4F1200620FA06F638BF314360
:103C3000A0403C1B1AE7AC421ABF05EA1357AF423B
:103C400012E050EA41061CBF52EA4306BFE750EAC1
:103C50004107304661461CBF41EA0551F0BD52EABA
:103C6000430C08BFC143F0BD00204FF4001616EB13
:103C7000410F98BF16EB430F08BF16EB410F24BF4F
:103C8000C14305E016EB430F0CBF61464CEA0551FA
:103C9000F0BD0000400D491840EA81200CD2490DCA
:103CA000A1F58061491C40F0004005DBD1F11F0106
:103CB00054BFC840C017704700207047014648B144
:103CC000B0FA80F18840C91CC1F58461090501EB97
:103CD000D02140057047012000F0BEB870470000B9
:103CE00070B44FF0004591EA030F7FF545AE6B408D
:103CF000841A71EB030604D26E40001BB141121905
:103D000073414FF4001C1CEB410F34BF7CEB4306A6
:103D100082E00C0DA4EB1356362E7BDC012E45EA17
:103D2000C32341DC43EA525312BFD20292025B0822
:103D3000240545EAC12141EA5051D2EBC020994106
:103D400025D407D1B0FA80F610FA06F162D000202F
:103D5000203608E0B1FA81F6B140C6F1200220FA1F
:103D600002F21143B0404FEAF474B4EB465434F01D
:103D700001064FEA74040AD8D6F50016760D04F051
:103D80000044F04061FA06F25040F1404840C00A59
:103D900040EA415021F0004128BF5FEA500550F150
:103DA000000044EBD12135E0DB0A45EAC121C90A14
:103DB000B6F120050EDD42EA0242120CC5F12006E2
:103DC00003FA06F6EB4042EA06056D42984161F1BE
:103DD00000010DE062FA06F5F240554063FA06FC78
:103DE00082EA0C02F3405A406D42904161EB0301BC
:103DF00011F4801F05D1641E620502D06D004041A0
:103E0000494121F48011430875F1004350F100004D
:103E100041EB045170BC70471CEB410F15D223F0ED
:103E2000004352EA43060BD04FEA4C0CBCEB410F67
:103E300004D80C0D661E342EB7DDEBE7801A9941CD
:103E400050EA410608BF0021E4E708BF1CEB430F1E
:103E500028BF6FF00001DDE780B5AFF30080024AB4
:103E600011001820ABBEFBE72600020038B50400A5
:103E700001D1012032BD00F018F808B900F019F89E
:103E800000F01CF800F024F8FFE7416100F001F8B1
:103E900032BD2068C16841F40051C16000206860F3
:103EA00020206870A8700020704704F13C056878F5
:103EB000704700212970204600F065BB24206870FF
:103EC0002068C16821F40051C160204600F0D5BAD5
:103ED0002068016921F4904101612068416921F065
:103EE0002A0170472DE9F843054605F13C060C46CA
:103EF000707820281746994640D10CB1380001D17E
:103F000001203CE03078012838D001213170212097
:103F100000217160707000F0A1FBAF84EF848046D7
:103F2000A968B1F5805F04BF286900280EBF274645
:103F3000204600270021317004460CE02868002C40
:103F400012BF14F8011B37F8021BC1F308014160CE
:103F5000E88C411EE9844346E88CCDF800900028A7
:103F60000FD000228021284600F087F90028E5D0F4
:103F7000032004E020207070002000E00220BDE853
:103F8000F28300224021284600F077F90028F1D082
:103F9000EEE738B500F130039C7B202C0FD109B13E
:103FA000140001D1012032BD1C7B012C07D001255A
:103FB0001D7300241C60BDE8384000F0A8B9022041
:103FC00032BD206800F1140151E8001F00F1140215
:103FD00021F0400142E80010002870477CB50446FB
:103FE00021680B68CD684A6913F00F0007D1980665
:103FF00061D5A8065FD52046BDE87640DAE1D00756
:1040000002D415F4907F56D0D80705D5E80503D51E
:10401000206C40F001002064580705D5D00703D577
:10402000206C40F002002064980705D5D00703D526
:10403000206C40F004002064180707D5A80601D4BE
:10404000D00703D5206C40F008002064206C0028C5
:1040500030D0990604D5A80644BF204600F0AAF93E
:1040600020684069216C0A0701D440061DD520460E
:1040700000F069F920684169480611D5FFF7A1FFF2
:10408000FCD1A06B60B10FF221310165A06B00F093
:10409000A3FB00280ED0A06B016DBDE87C40084753
:1040A0002046BDE8764000F09DBC204600F09AFC1A
:1040B0000020206473BD206B012804F13D0279D1FA
:1040C000DE0677D5E80675D5002000900B680093D2
:1040D00048680090009B4869410639D5A16B086883
:1040E000406880B20028E5D0A38D9842E2DAE085EE
:1040F000C869B0F5807F27D000F0A4F800F10C0368
:1041000021F4807143E800100028F5D100F094F804
:10411000490800F11403490043E800100028F5D1D4
:1041200000F08AF800F1140321F0400143E8001088
:104130000028F5D1202050700020206300F090F876
:10414000FCD1A06B00F003FBA18DE08D091A2BE0E0
:10415000A08DE18D411AE08D00281CBF88B2002897
:1041600063D0206800F10C0353E8003F00F10C0518
:1041700023F4907345E800300028F2D1206800F065
:1041800055F800F114055B0045E800300028F5D132
:10419000202050700020206300F05AF822F0100216
:1041A00043E800200028F7D12046BDE87C4089B2D2
:1041B00000F019BC180629D5280627D51078212823
:1041C00033D1A268B2F5805F04BF2069002808D10E
:1041D000226A1088C0F308004860206A811C2162AE
:1041E00004E0206A421C226200784860E08C401E95
:1041F000E08480B2C8B92068C16821F08001C16044
:104200002068C16841F04001C16073BD58060CD5FB
:1042100068060AD5C86820F04000C86020211170E7
:104220002046BDE8764000F0DFBB73BD00F114030B
:1042300053E8003F5B087047206800F1140151E823
:10424000001F7047206800F10C0151E8001F704703
:10425000206800F10C0252E8002F00F10C037047B7
:10426000206800F10C0151E8001F00F10C0221F060
:10427000100142E80010002870472DE9F041069C2B
:1042800005460E4690461F46286801683140B142F7
:104290000CBF0120002040451BD114F1010FF3D0C9
:1042A00024B100F0DBF9C01B8442EDD200F027F806
:1042B00021F4D07100F012F8F8D100F013F8FCD11D
:1042C00005F13C0020214170817000210170032024
:1042D00000E00020BDE8F08121F4F07142E8001018
:1042E00000287047286800F1140151E8001F4908B0
:1042F00000F11402490042E80010002870472868C5
:1043000000F10C0151E8001F00F10C0270478162BE
:104310008285C28500F13C0100224A6022228A7017
:1043200000220A700168CA6842F48072CA6001689B
:104330004A6942F001024A610068C16841F0200107
:10434000C16000207047016801F10C0252E8002FA3
:1043500001F10C0322F4907243E800210029F2D10C
:10436000016801F1140252E8002F520801F1140310
:10437000520043E800210029F2D1016B01290CD140
:10438000016801F10C0252E8002F01F10C0322F048
:10439000100243E800210029F2D1202180F83E10CC
:1043A0000021016370470000806B0021C185C1843A
:1043B00000F018BB80B590F83E1022295BD18168CF
:1043C000826AB1F5805F0AD1016969B903685968E9
:1043D000C1F308011180826A911C81620FE00029FB
:1043E00004BF0169002902D10368596803E001682C
:1043F000496801F07F011170816A4A1C8262C18D97
:10440000491EC18589B2A1BB0168CA6822F0200299
:10441000CA600168CA6822F48072CA6001684A6989
:10442000520852004A61202180F83E10016B012998
:104430001DD100220263016801F10C0252E8002F35
:1044400001F10C0322F0100243E800210029F2D10F
:1044500001680A68D30606D5002300930A68009213
:1044600049680091009A818D00F0BDFA01E000F0EA
:10447000F2FA002002BD022002BD7CB5044621688C
:104480000A69E06822F4405202430A612648CA6879
:104490000240A06802432069024360690243E06968
:1044A0000243CA604A69A06922F4407202431F486D
:1044B0004A6181421CBF1E48814202D100F074FB58
:1044C00001E000F069FB62682568E469642619214F
:1044D000B4F5004FA1FB000112D1D30F5200FEF73B
:1044E00023FF00F027F8F60032366420B6FBF0F028
:1044F000420002F4F87202EB011200F0070010E033
:10450000930F9200FEF710FF00F014F836013236D8
:104510006420B6FBF0F000F0F00202EB011200F0B4
:104520000F008018A86073BDF369FFFF0010014001
:10453000001401406421B0FBF1F106FB1106704745
:1045400080B54048404900F00BF800B117E001BDCC
:1045500080B53E483E4900F003F800B10FE001BDD0
:1045600001604FF4E131416000218160C16001616F
:104570000C21416100218161C161FFF777BCBDE879
:10458000014000F0D3BB10B586B0044601A8142149
:1045900000F0CEFB22682C4B2E482F499A421DD1A9
:1045A000002200920B6943F400230B6100230A6987
:1045B00002F400220092009A0093032200F033F8E4
:1045C000029308210591049201A900F0B5FB002295
:1045D0000021342000F0C8FC342020E01C4B9A421B
:1045E0001FD1002200920B6943F400330B610023BA
:1045F0000A6902F400320092009A00930C2200F043
:1046000012F80322072105910293049201A900F0F8
:1046100093FB00220021262000F0A6FC262000F0BB
:10462000C0FC06B010BD0C6844F001040C6002230D
:10463000096801F0010100910099019200210391A4
:1046400070470000783E0020004C0040BC3E002037
:1046500000440040000002403038024001484068F9
:10466000704700BFA82100207CB50446FFF7F6FF85
:1046700006460CB9012076BD04F1340502206870AD
:104680000020287000F08DF921680868C20720D545
:10469000FFF7E4FF801B0628F6D3202028620320C2
:1046A00015E0B0F5005F09D1032E42D8DFE806F02F
:1046B0000C0A0C02B1F1C07F3BD105E0022E03D9F8
:1046C000F61E36D1C80134D540202862012068701A
:1046D00076BD0A68DFF8B802024060680243A0684D
:1046E0000243E06802432069024360690243A06913
:1046F0000243E0690243206A0243606A042803D14E
:10470000E36A206B03431A430A6023685A69606AAC
:10471000D208042840EAC2020BD1A66AE16A3243F9
:1047200039B1A0690028BCD1002E18BF022EC9D013
:10473000C0D35A61204600F03BF9A96A3F228A4063
:1047400082600020286201206870002076BDF8B5E4
:10475000064606F13404656AFFF780FF0746607875
:10476000022805D080212162002020700120F2BDA6
:104770003068016821F0160101603068416921F05C
:1047800080014161E168002904BF6069002804D00C
:104790003068016821F00801016030680268520841
:1047A0005200026030680168CA070CD5FFF756FF57
:1047B000C01B0628F6D32020206203206070002052
:1047C00020700320F2BDA06A3F218140A960012032
:1047D000607000202070F2BD90F83510022903D0DF
:1047E0008022426501207047052180F8351000685D
:1047F0000168490849000160002070472DE9FC412B
:10480000044604F134060020624900904FF416502B
:10481000776A0A683D68B2FBF0F8B06A082100F0D8
:10482000BCF80ED02068026853070AD5036823F04D
:1048300004030360B06A8140B960306A40F001004F
:104840003062B06A25FA00F1C9070BD521684A69C0
:10485000110607D5012101FA00F0B860306A40F076
:1048600002003062042100F097F808D021680A683D
:10487000930704D5B860306A40F00400306210211C
:1048800000F08AF81BD021680A68130717D5B860B2
:10489000206801684A0307D5006801030BD57169D8
:1048A00069B1204688470AE00168CA0503D4026856
:1048B00022F008020260F16809B120468847B06A18
:1048C000202100F06AF845D021680A68D30641D556
:1048D000B86020687178052922D1026822F016029A
:1048E00002602068416921F080014161F16800297E
:1048F00004BF7069002804D02068016821F0080115
:1049000001603F22B06A8240BA60012070700020CE
:10491000F1693070002939D02046BDE8FC410847D4
:1049200001684A0307D5006801030FD4316989B1D2
:10493000204688470EE00168CA0507D4026822F0C5
:10494000100202600120707000203070B16809B15F
:1049500020468847306AC8B1316AC80710D505209B
:10496000707000F01EF820680099491C884500917D
:1049700002D30168CA07F7D401207070002030709C
:10498000B16919B12046BDE8FC410847BDE8F38193
:104990003F8010F0B4210020B06A01FA00F0054217
:1049A00070472068016849084900016070470000AD
:1049B00081B0016801F0FF02103A1823B2FBF3F254
:1049C0000FF218039B5CC365890A8902042A28BF79
:1049D000091D8165084601B07047000000061016E9
:1049E0000006101670477047704700001E4908887F
:1049F00010B10A88531E0B80488810B14A88501E97
:104A000048807047FEE7FEE7FEE7FEE7FEE77047F7
:104A10007047704738B5154C25886D1CADB20A2D0E
:104A2000A4BF0025FFF7E2FF2580BDE8314000F07C
:104A3000F3BA0F4800F020BB0E4800F0C5BE0E4888
:104A4000FFF7CCBA0D48FFF7C9BA0D4801F058B8C6
:104A50000C48FFF7D3BE01F07CBB0B48016881F422
:104A60000041016070470000343F00203C3F0020BF
:104A7000E83D0020403D0020BC3E0020783E002064
:104A8000303E0020E03C0020140C02402DE9F843A9
:104A900004000F4678D0494E306800F00700B84255
:104AA00002D200F073F86FD12068454D810712D50E
:104AB000400703D5A86840F4E050A86021780807B3
:104AC00003D5A86840F46040A860A968A06821F0F8
:104AD000F0010143A9602078C1074DD56068012825
:104AE00002D129688A0305E0022818BF032803D1F0
:104AF00029688A0103D447E02A68910744D5A96848
:104B0000890840EA8100A86041F28939FFF7A6FDD3
:104B10008046A868616800F00C00B0EB810F2BD0D4
:104B2000FFF79CFDA0EB08004845F2D3032021E0ED
:104B30002078410705D5A968E06821F4E0510143D8
:104B4000A9602078010706D5A868216920F4604093
:104B500040EAC100A86000F03FF8AA681949C2F312
:104B60000312895C184AC84010601848006801F0B8
:104B70001BFC0020BDE8F283306800F0070087428C
:104B8000D6D200F003F8D3D00120F3E737703168B4
:104B900001F00701B94270470B480D4A00681368DD
:104BA0000C49C3F3822206E00748094A00681368EB
:104BB0000849C3F34232895CC8407047003C024058
:104BC000003802407C7E0008B4210020B021002083
:104BD00008380240107F000818B5124C606800F0D9
:104BE0000C00042802D0082802D019E00E4812BD9B
:104BF00000232268206841022068C0F388104CBF5F
:104C000009490A4902F03F02A1FB0001FEF78CFBB3
:104C10002168C1F30141491C4900B0FBF1F012BD0C
:104C2000024812BD0438024040787D010024F4009F
:104C300001B54FF47A73012269463848FFF752F9FB
:104C4000009802BD80B501F0CFFB00F01BF801F029
:104C5000E5FB01F049FCFFF773FCFFF779FCFDF77A
:104C600057FA01F0A1FC01F0B9FC01F047FDFA2070
:104C700001F08EFD2A4800F0DAFE01F047F801F05D
:104C800067FAFCE780B592B006A8302100F050F832
:104C900001A8142100F04CF8002000902148016880
:104CA00041F0805101600021006800F080500090C8
:104CB00000981D4800910221026842F4804202607F
:104CC0000122006800F480400090009806911020B6
:104CD0000A900C9100200D90082140200F900E9119
:104CE0000420022111900992109106A801F064FDA0
:104CF00008B100F01BF80F200221019002918020E2
:104D0000002103900491059101A80121FFF7BEFE47
:104D100008B100F00BF813B000BD0000783E002091
:104D2000303E0020403802400070004072B6FEE77E
:104D3000002201F0D5BE00002DE9F84F0D464FF0DE
:104D400000087049704A0F23044601202E6800FABB
:104D500008F000EA0609814540F0C5804FEA480C9A
:104D6000032606FA0CF66FEA060E6E6806F00307D5
:104D7000012F1CBF06F00306022E11D1A668EF68B2
:104D80000EEA060607FA0CF73E43A660666826EAB6
:104D900000006E68C6F3001606FA08F6304360603D
:104DA0004FEA88002E7906F00306032E1FD0E6682E
:104DB000AF680EEA060607FA0CF73E43E6602E7966
:104DC00006F00306022E12D14FEAD80704EB87063D
:104DD00000F01C07D6F820A003FA07FB2AEA0B0A0A
:104DE000D5F810B00BFA07F747EA0A0737622668CA
:104DF0000EEA06072E7906F0030606FA0CF63E4385
:104E000026606E6816F4403F6DD0002600964FEA8B
:104E1000980C1668DFF8F4E046F48046166000F05F
:104E20000C00166806F480460096009E5EF82C7012
:104E300003FA00F627EA0606354FBC4208BF0027F2
:104E400022D0344FBC4208BF01271DD0324FBC4294
:104E500008BF022718D0314FBC4208BF032713D028
:104E60002F4FBC4208BF04270ED02E4FBC4208BFB4
:104E7000052709D02C4FBC4208BF062704D02B4F72
:104E8000BC420CBF0727082707FA00F030434EF852
:104E90002C006FEA09000E6800EA060C6E68F60343
:104EA00048BF49EA0C0CC1F800C04E6800EA060C85
:104EB0006E68B60348BF49EA0C0CC1F804C08E689E
:104EC00000EA060C6E68F60248BF49EA0C0CC1F80D
:104ED00008C0CE6800EA060C6868800248BF49EA4C
:104EE0000C0CC1F80CC008F10108B8F10F0F7FF6E7
:104EF0002CAFBDE8F18F81B002B90904816101B026
:104F000070470000003C014044380240083801402E
:104F1000000002400004024000080240000C024071
:104F2000001002400014024000180240001C024021
:104F30000901020081B002D43048815405E03048B4
:104F400002F00F02104400F8041C01B070472D4A13
:104F500013684FF6FF0100020B4000F4E0601843B5
:104F6000294908431060704738B5264B1C68C4F3C4
:104F70000223C3F10704052C28BF04241D1D072D9F
:104F800034BF0023DB1E012505FA04F4641E214012
:104F9000994005FA03F35B1E1A401143BDE8344003
:104FA000C6E7002807D4012200F01F01174B8A40F2
:104FB000400943F820207047BFF34F8F1149144830
:104FC0000A6802F4E06202430A60BFF34F8F00BF39
:104FD000FDE710B5401EB0F1807F01D3012010BD68
:104FE0000C4C60600F214FF0FF30FFF7A1FF002253
:104FF000A26007202060002010BD000000E400E057
:1050000018ED00E00CED00E00000FA0500E100E022
:105010000400FA0510E000E00248416802788918AF
:1050200041607047A821002070B5044600250CB9E6
:10503000012070BD04F13C06706820B9204601F0E3
:10504000FDFAB56035707068C10610D4706820F440
:10505000885040F002007060204600F03AF9B560D8
:10506000706820F0020040F00100706000E001254F
:1050700000203070284670BD38B5044621680A68A3
:105080004868920729D5800627D5206CC20603D42C
:10509000206C40F400702064886810F0405F04BF0A
:1050A000207E002812D1CA6A12F4700F02D08868DC
:1050B00042050BD4486820F020004860206C20F4A2
:1050C00080702064206CC10400F066F8204601F076
:1050D00020FD21686FF01200086021680A684868A6
:1050E000520730D500062ED5206CC20603D4206CA2
:1050F00040F400502064886810F4401F1CD1886B75
:1051000010F4401F02D08868420515D44868420553
:1051100012D4886810F0405F04BF207E00280BD1B5
:105120004A6822F080024A60206C20F4805020649B
:10513000206CC10500F030F8204601F0EBFC21683E
:105140006FF00C000860206802684168D2070FD534
:1051500049060DD50068C1070AD5206C40F480309F
:105160002064204601F0D7FC21686FF00100086040
:1051700020680268416892060DD549010BD5616C23
:1051800041F0020161646FF020050560204601F0E6
:10519000C3FC2068056031BD03D4206C40F00100E1
:1051A0002064704778B502460020009092F83C30A9
:1051B000012B01D1022072BD012082F83C0007249E
:1051C0000B6810680A2B11D30A3BC56803EB430335
:1051D00000F07BF8C460C3680D688C68A5F10A060E
:1051E00006EB4606B4402343C3600FE0056903EBBA
:1051F000430304FA03F325EA0303036103690D681B
:105200008C6805EB4505AC40234303611F244B68C4
:10521000072B0CD25B1E456B00F055F84463436BC3
:105220004D680C886E1E00F049F843631BE00D2B9F
:105230000CD2DB1F056B00F046F80463036B4D686E
:105240000C88EE1F00F03AF803630CE00D3BC56AD2
:1052500000F039F8C462C36A4D680C88A5F10D06E8
:1052600000F02CF8C3625A4B984222D10B68574881
:10527000122B03D1046844F4800404600B68102BE3
:1052800018BF112B15D1036843F4000303600868AD
:1052900010280ED150494F4C0B68B3FBF4F40A2090
:1052A0004443009402E00099491E009100980028B0
:1052B000F9D1002182F83C10002072BD06EB860671
:1052C000B4402343704703EB83039C4025EA040466
:1052D00070473E4A116821F44031116013684168FB
:1052E0000B4313600268516821F48071516051686A
:1052F000036941EA03215160516821F04071516016
:10530000536881680B435360916821F40061916098
:105310009368C1680B439360816A304B994210D007
:10532000936823F0706393609368816A0B43936082
:10533000916821F0405191609368C16A0B4393607A
:1053400007E0916821F070619160916821F040510F
:105350009160916821F0020191609168037E41EAB9
:105360004301916090F8201069B1536843F40063E1
:105370005360516821F4604151605168436A5B1E7B
:1053800041EA433102E0516821F400615160D16A81
:1053900021F47001D162D16AC3695B1E41EA0351F5
:1053A000D162916821F400719160916890F8303079
:1053B00041EA43219160916821F480619160916894
:1053C000406941EA80219160704700000423014058
:1053D0000020014040420F00B42100200100000FD6
:1053E00038B5040001D1012032BD606A28B9616876
:1053F000B1F5827F04D0E06102E0002020616061AD
:10540000A06204F15005687820B900212970204677
:1054100001F088F80220687000F062FA6068A16804
:10542000E26800F4827001F404410843217C02F434
:1054300000621043227D01F002010843A16902F0DD
:1054400001021043227F01F40071084394F82010F8
:1054500002F038021043A26A01F08001084321687B
:1054600002F4005210430860A06994F824102268E6
:10547000000C00F0040001F01001084350602068A7
:10548000C16921F40061C161002068600120687079
:10549000002032BD2DE9F84300F06BF9984608BFB3
:1054A000022000F0848001213970FFF7D7F8797865
:1054B000012918BF022678D1002C18BFB9F1000FBE
:1054C00072D0032179707E602C63A5F83490A5F822
:1054D0003690AE63AE87EE876E642E64A968B1F530
:1054E000004F09D129680B6823F040030B6029683D
:1054F0000C6844F480440C6000F032F94446EB68D8
:105500006968B3F5006F21D1002918BFB9F1010F07
:1055100000F04EF9804604E0296B0A88C26000F072
:1055200018F9E88E002833D0286881688A07F3D4F8
:10553000FFF794F8A0EB0800A04204D314F1010F88
:10554000EFD0032631E0002CEBD1FAE7002918BF99
:10555000B9F1010F00F020F9804606E0296B0A78C6
:105560000273286B411C00F0F6F8E88E80B12868C1
:1055700081688A07F2D4FFF771F8A0EB0800A04217
:1055800003D314F1010FF0D0DBE7002CEDD1D8E705
:1055900042462146284600F00AFA08B120207860E9
:1055A00000F0F0F8786800B1012600F002F8BDE8DC
:1055B000F2830121797000203870304670472DE960
:1055C000FC4700F0D6F84FF0010808BF022000F0B9
:1055D000B3809A4687F80080FFF740F87B78012B6C
:1055E00009D06968B1F5827F02BFA9680029042B40
:1055F00001D002269BE0002C1CBFB9F1000FBAF1CC
:10560000000F01D1012692E07B78042B1CBF0521FD
:1056100079707E60C5F83890A5F83EA0A5F83CA04A
:105620002C63A5F836A0A5F834A02E646E6400F0B3
:1056300097F8EB680A9C6968B3F5006F38D10029C8
:1056400018BFBAF1010F00F0B3F88146E98E0029C6
:1056500004BFE88F002871D02968886882070BD5BD
:10566000E88E002818BFB8F1000F05D0286B02881B
:10567000CA60B04600F06DF829688868C2070CD58A
:10568000E88F50B1C968A86B01804FF00108A86B82
:10569000811CA963E88F411EE987FEF7DFFFA0EBBD
:1056A0000900A042D2D314F1010FCFD003263EE06F
:1056B000002918BFBAF1010F00F06EF88146E98E9B
:1056C000002904BFE88F002838D02968886882073D
:1056D0000DD5E88E002818BFB8F1000F07D0286B51
:1056E00002780A73B046286B411C00F034F8296830
:1056F0008868C2070CD5E88F50B1C968A86B0170E3
:105700004FF00108A86B411CA963E88F411EE9878F
:10571000FEF7A4FFA0EB0900A04203D314F1010F90
:10572000CDD0C3E7002CCAD1C0E700F02BF8012090
:105730007870002038703046BDE8F68721464A462A
:10574000284600F034F90028EFD0202001267860A8
:10575000EDE7286B811C2963E88E411EE9867047BE
:1057600029680B685C0603D40C6844F040040C60A4
:105770007047054605F150070026387801280C4689
:1057800091467047A86830B900962868C1680091B2
:10579000806800900099704709D1296B2B680A78BE
:1057A0001A73296B4A1C2A63E98E4A1EEA867047DF
:1057B00009D1296B2B680A88DA60296B8A1C2A6355
:1057C000E98E4A1EEA86704738B50446206841686B
:1057D000826802F04103012B06D14D0604D5216CED
:1057E0002046BDE834400847930706D50B0604D58C
:1057F000616C2046BDE83440084712F4B07F62D0A7
:105800008B0660D553060ED594F85130032B4DD03E
:10581000656D45F00405656500230093C568009536
:1058200083680093009D93060CD5636D43F00103DC
:1058300063650025009583680093056825F04005A1
:1058400005600098D00509D5606D40F008006065DE
:10585000002200922068826800920098606D90B3E8
:105860002068426822F0E0024260012011F0030F3C
:1058700084F8510022D020680FF24D054168890854
:1058800089004160E06C28B10565E06CFEF7A4FF7B
:1058900000F020F8A06CB0B10565A06CFEF79CFF8D
:1058A00088B1606D40F04000606531BD002100911D
:1058B000C268009280680090009931BD2046BDE822
:1058C000324001F02AB931BD806B0021C187C18609
:1058D00001F023B918B1606D40F040006065704779
:1058E0002068016821F040010160704700002DE947
:1058F000F843089C05460E4691461F46FEF7AEFE4D
:10590000381A2418FEF7AAFE80464048016849016B
:10591000090D6143009105E0009800B9002400984A
:10592000401E0090296888683040B0420CBF0120BA
:105930000020484532D017F1010FF3D0FEF78EFE5C
:10594000A0EB0800A04201D2002CE5D128684168F4
:1059500021F0E00141606868B0F5827F08D1A86855
:10596000B0F5004F18BFB0F5806F01D100F019F805
:10597000A86AB0F5005F09D12868016821F40051D8
:1059800001602868026842F40052026005F150008C
:105990000121417000210170032000E00020BDE8DA
:1059A000F2832868016821F04001016070477CB5EE
:1059B00004461648164E0B4601681825B1FBF5F54E
:1059C000B5FBF6F64FF47A70464300966568B5F578
:1059D000827F09D10092802100222046FFF787FFB5
:1059E00058B100F00CF876BD009830B10099491E0E
:1059F0000091206881680806F6D4002076BD606DAD
:105A000040F020006065032070470000B4210020B2
:105A100040420F0038B5040001D1012032BD00F032
:105A20006BF818B900F064F800F08DFE3FE081B02B
:105A300090F83D10012918BF012036D1022280F8CC
:105A40003D200168CA6842F00102CA600068DFF8C0
:105A50008410884218BFB0F1804F17D0DFF878105B
:105A600088421CBFDFF8741088420FD0DFF8701036
:105A700088421CBFDFF86C10884207D0DFF868103E
:105A800088421CBFDFF86410884209D1816801F0A8
:105A90000701062908D0016841F00101016003E017
:105AA000026842F001020260002001B0704702204B
:105AB0006870211D206800F0C7F80120A872A87046
:105AC000E87028716871A871E8712872687268704E
:105AD000002032BD000001400004004000080040EA
:105AE000000C00400004014000400140001800404C
:105AF000002129702046704704F13C056878704702
:105B000010B50446206801698A0715D5C1688A075F
:105B100012D56FF00202026101212177806910F035
:105B2000030F204602D000F0F9FF03E000F0F7FF7A
:105B300000F087F800202077206801694A0715D512
:105B4000C1684A0712D56FF0040202610221217771
:105B5000806910F4407F204602D000F0DFFF03E0B0
:105B600000F0DDFF00F06DF800202077206801696B
:105B70000A0715D5C1680A0712D56FF0080202613D
:105B800004212177C06910F0030F204602D000F0F5
:105B9000C5FF03E000F0C3FF00F053F800202077BA
:105BA00020680169CA0615D5C168CA0612D56FF00A
:105BB0001002026108212177C06910F4407F20465D
:105BC00002D000F0ABFF03E000F0A9FF00F039F8CD
:105BD0000020207720680169CA0708D5C168CA0774
:105BE00005D56FF0010202612046FEF736FF2068FE
:105BF00001690A0608D5C1680A0605D56FF080025A
:105C00000261204600F08CFF206801694A0608D531
:105C1000C1684A0605D56FF040020261204600F0D7
:105C200080FF206801698A060AD5C1688A0607D5FF
:105C30006FF0200202612046BDE8104000F072BF04
:105C400010BD204600F06FBFF0B5254C0568254B10
:105C5000254E264FDFF898C0A04218BFB0F1804F04
:105C600007D0604518BFB84203D0B04218BF984271
:105C70000DD14A6825F070051543A04218BFB0F158
:105C8000804F17D060451CBFB842B04212D0984236
:105C90001CBF184A90420DD0174A90421CBF174AA9
:105CA000904207D0164A90421FBF164A9042164AA9
:105CB000904203D1CA6825F4407515434A6925F01E
:105CC000800515430560A0428A68C2620A68826244
:105CD00012BF98420969016301214161F0BD0000D2
:105CE0000000014000040140000C0040000800409A
:105CF00000040040004001400044014000480140D1
:105D000000180040001C0040002000402DE9F84F22
:105D10002DED108B84B000F0B8F918B10FF27C4073
:105D200000F002FFDFF858440FF29841012204F11D
:105D3000C800FBF748FB2070062241F2F800271844
:105D40000FF290410FF2105B0FF2F44A3846FBF766
:105D50003AFB02466270002621780FF2884000F07C
:105D6000E3FE42F268102044029004F180081BE038
:105D7000A07838B93846FBF70BFE504600F0D4FE49
:105D80000120A070584600F0CFFE0AE0D4E90223BB
:105D900098ED000B0FF290408DED000B314600F0B6
:105DA000C3FE012000F0F4FC42F22810251804F193
:105DB000C80240212846FBF78CFE0028D8D00A21D3
:105DC0002846FDF7DDF900210170284600F0C3FEEA
:105DD000B0EE40AAF0EE60AA98ED0C9B94ED06DBC5
:105DE00098ED0E8B84ED02AB00F043F902460B46B2
:105DF00051EC1A0BFDF7B8FD05468946D4E90801B8
:105E000053EC182BFDF7A8FB00F039F941EC1F0B00
:105E100084ED04FBD8E90623D4E9040198ED10AB26
:105E200098ED0ABB98ED08CBFDF796FB0546894631
:105E3000D8E90823D4E90601FDF78EFB00F00FF93D
:105E400005468946D8E90A23D4E90801FDF784FB11
:105E500000F005F9D8E91023FDF77EFB84ED08DB9F
:105E600041EC1E0B94ED0CDB84ED1CEB84ED06FB8A
:105E700000F0FFF800F0F7F805468946D4E90E0176
:105E800053EC182BFDF768FB00F0F9F841EC1F0B01
:105E900084ED0AFBD8E90623D4E90A01FDF75CFB8F
:105EA00005468946D8E90823D4E90C01FDF754FBDF
:105EB00000F0D5F805468946D8E90A23D4E90E0151
:105EC000FDF74AFB00F0CBF8D8E91023FDF744FBBF
:105ED00084ED0EDB41EC1E0B84ED0CFB88ED02EB38
:105EE00053EC192B94ED12DB94ED14FB00F0C3F886
:105EF00000F0B9F80546894653EC182B51EC1F0BFE
:105F0000FDF72AFB00F0BBF8D8E9062341EC1E0B95
:105F100084ED10EBFDF720FBCDE9000153EC1C2BC9
:105F200000F0A9F8DDE90023FDF7DAFE0546894611
:105F300053EC1B2B51EC1F0BFDF70EFB00F08FF801
:105F400053EC1A2BFDF708FB84ED14DB41EC1F0B1F
:105F500084ED12EB84ED1EFB53EC192B94ED18DB52
:105F600094ED1AEB00F087F802460B4651EC1F0B3C
:105F7000FDF7FAFC0546894653EC182B51EC1E0B35
:105F8000FDF7EAFA00F07BF841EC190B84ED169B63
:105F900053EC1C2B00F06FF8DDE90023FDF7A0FEA9
:105FA0000546894653EC1B2B51EC1E0BFDF7D4FA2A
:105FB00000F055F853EC1A2BFDF7CEFADFF8C4C108
:105FC00084ED1ADBB44441EC180B6F4888ED008B6C
:105FD000844584ED189B0BD253EC182B51EC180B15
:105FE000FDF7BAFAD8E90423FDF77AFEC8E90401FF
:105FF00002980FF2182153EC182B00F0B1FD029813
:106000003946FBF7C6FD761CB6F57A7FFFF6BEAEC5
:10601000D8E9040100225D4B0FF24C25FDF716FD77
:1060200041EC100B00F0BCFD53EC102B0FF2E41010
:1060300000F07AFD04F1C800FBF7AAFC3846FBF734
:10604000A7FC052402E0284600F06EFD2046441E11
:106050000028F8D104B0BDEC108BBDE8F18F2A46C2
:106060004B46FDF73DBE02460B4651EC1E0BFDF7BD
:106070007BBC53EC192B51EC1D0BFDF76DBA02469E
:106080000B4628464946FDF76FBC2DE9FC4100252B
:106090000FF20C260FF2F0183D4C37A712E000F07B
:1060A00051F8C82000F074FB042D0BDD304600F0E1
:1060B0003BFD00F0F7FDFEF77FFF4FF47A7000F034
:1060C00067FB002501223946201DFBF750F9002807
:1060D000E5D10FF2F4100FF244260FF2102800F071
:1060E00023FD002525A712E000F02CF8C82000F0C1
:1060F0004FFB042D0BDD304600F016FD00F0D2FD05
:10610000FEF75AFF4FF47A7000F042FB002522465A
:1061100069463846FBF765FC0028E5D10FF23020D0
:1061200000F002FD2068009A4189C069801E4A4340
:106130004143520849080FF2442000F0F5FC0120C9
:10614000BDE8F6816D1CEDB22946404600F0ECBC7E
:10615000704710484188203189B2B1F5006FA8BF5F
:106160000021418020220121017041880844011D45
:106170000948FDF70EBF00002F00000031000000AD
:1061800000000020DFB1FFFF6F1101000017F14098
:1061900098220020D4320020BC3E002053442063CB
:1061A0006172642073797374656D207375636365C0
:1061B0007366756C6C7920696E697469616C697A53
:1061C00065640A0052617756616C7565732E747848
:1061D000740000004E657756616C7565732E747897
:1061E00074000000665F6F70656E73207265737572
:1061F0006C7473202D2D3E6672313A2025642C205C
:106200006672323A2025640A00000000252E386CA0
:10621000660A0000524D532056616C7565203A2085
:10622000252E386C660A00005B2536645D252E3805
:106230006C66203D3D3D3E20252E386C660A0000F0
:1062400066696C652077726974652066696E69732A
:106250006865640A00000000665F67657473206506
:1062600072726F720A000000596F75722070726F3F
:106270006365737365642069732066696E6973680A
:106280006564210A000000005B25645D4641494CBD
:1062900020696E206D6F756E74696E670A0000006C
:1062A000665F6D6F756E74206572726F722E2E2E22
:1062B00053797374656D20676F657320746F205216
:1062C000455345540A0000004D6F756E742070727E
:1062D0006F636573732073756363657366756C6C48
:1062E000792066696E69736865640A005B25645D80
:1062F000665F676574667265652066756E6374694E
:106300006F6E204552524F522E4E6F204672656579
:10631000205370616365210A0000000047657474B2
:10632000696E6720667265652073706163652045DC
:1063300052524F522E2E2E53797374656D20676F13
:10634000657320746F2052455345540A00000000C5
:106350002A2A2A2A636865636B696E6720667265FC
:10636000652073706163652069732073756363656D
:10637000737366756C2A2A2A2A0A00002564204B4A
:106380004220746F74616C2064726976652073704A
:106390006163652E0A2564204B4220617661696C39
:1063A00061626C652E0A000038B50D4D0D4A2978E2
:1063B00004464FF47A70B0FBF1F11068B0FBF1F0D5
:1063C000FEF707FE50B9102C08D2002221464FF0EC
:1063D000FF30FEF7C9FDAC60002032BD012032BDA8
:1063E000A8210020B421002080B50B48016841F4A9
:1063F00000710160026842F480620260016841F449
:10640000807101600320FEF7A2FD0F20FFF7CCFF93
:1064100000F058FC002002BD003C024038B586B0B8
:1064200001A81421FEF784FC00242C482C4D009474
:1064300001682C4C41F080010160026802F080028A
:106440000092002200990092036843F00403036065
:10645000016801F00401009100990092036843F083
:1064600001030360016801F00101009100990092AD
:10647000036843F002030360016801F00201009128
:10648000009900920121036843F00803036000684B
:1064900000F00800009000982846FEF72CFD00222E
:1064A0004FF470412046FEF726FD01200190029036
:1064B00001A90020039004902846FEF73DFC4FF40C
:1064C000704001900121002002910390049001A9E5
:1064D0002046FEF731FC07B030BD000030380240E6
:1064E00000040240000C024080B52B482B4901609B
:1064F0004FF48271416000218160C160016141619E
:106500004FF4007181610021C161016241628162C9
:106510000A21C162FEF764FF18B1BDE80140FEF731
:1065200005BC01BD10B586B0044601A81421FEF7D4
:10653000FFFB2168194A91422CD1002000900022D3
:106540001748416941F480514161416901F480512A
:10655000009100990092E021036843F00103036079
:106560000222006800F001000090009801910020D4
:1065700003900321052004910590029201A9094886
:10658000FEF7DAFB002200212320FEF7EDFC23209A
:10659000FEF707FD06B010BD403D00200030014071
:1065A000303802400000024080B5002000900022F8
:1065B0000948016841F4800101600021006800F48D
:1065C0008000009000983820FEF7CEFCBDE8024025
:1065D0003820FEF7E6BC00BF3038024038B584B042
:1065E00068461021FEF7A4FB00203D4C6060A060CF
:1065F000206101202076002084F82000E062394DDF
:106600003948A06225600020E0600120E06184F844
:10661000300060612046FEF707FD08B1FEF786FBFB
:106620000D20012100900191029120466946FEF75C
:10663000B9FD08B1FEF77AFB05B030BD38B586B0BC
:10664000044601A81421FEF773FB2168254A9142F4
:1066500044D10020009000222448254D416941F496
:1066600080714161416901F480710091009900924B
:106670000821036843F0040303600322006800F06C
:10668000040000900098019100200390029201A95B
:106690001848FEF751FB1848286000206860A86081
:1066A000E8604FF4806028614FF4006068614FF447
:1066B0000050A8610020E861286268622846FDF762
:1066C000D3FF08B1FEF732FBA563AC6300220021C3
:1066D0001220FEF749FC1220FEF763FC07B030BD24
:1066E000E83D0020002001400100000F303802404A
:1066F000E03C002000080240106402401CB51F4C22
:106700000FF28400D0E900231D48206042F2CF0040
:1067100060600020A06040F6C310E060CDE9002377
:106720000020A0612046FFF775F908B1FEF7FEFAD8
:106730000020009001906946204600F0DFFA08B181
:10674000FEF7F4FA13BD00680D49884200D0704787
:1067500080B500210B480091026842F010020260EF
:106760000022006800F01000009000983620FEF72C
:10677000FBFBBDE802403620FEF713BC303E002094
:1067800000100040403802400000000000000000FF
:1067900038B50446FDF762FF14F1010F054602D03B
:1067A000044801786418FDF759FF401BA042FAD352
:1067B00031BD00BFA82100202DE9F843040016D008
:1067C0002078DFF80C63C10713D5B06800F00C0027
:1067D000042807D0B06800F00C0008283ED170688B
:1067E00041023BD53168880303D56068002800F07A
:1067F00001812178B74F880719D5B06810F00C0FC8
:1068000007D0B06800F00C00082858D17068410229
:1068100055D43168880703D5E068012840F0EA8044
:106820003168206921F0F80141EAC0013160217826
:10683000080768D56069A84900285ED001220A606F
:10684000FDF70CFF0546706F810700F1D580FDF75D
:1068500005FF401B0228F6D9032036E16068B0F539
:10686000803F06D0B0F5A02F316807D141F48021D8
:106870003160306840F48030306006E021F48031CF
:106880003160326822F480223260606858B1FDF7CE
:10689000E5FE054631688803ABD4FDF7DFFE401BFB
:1068A0006528F7D3D8E7FDF7D9FE054630688103A0
:1068B0009FD5FDF7D3FE401B6528F7D3CCE7E068F2
:1068C00070B101213960FDF7C9FE054630688107C6
:1068D00000F1BE80FDF7C2FE401B0228F6D9BBE7DF
:1068E0003860FDF7BBFE0546306881079FD5FDF790
:1068F000B5FE401B0228F7D9AEE70860FDF7AEFEF3
:106900000546706F810777D5FDF7A8FE401B02286A
:10691000F7D9A1E70528306F06D140F004003067B1
:10692000306F40F0010005E0400840003067306FF4
:1069300020F00400306741F28938A06868B1FDF7A3
:106940008DFE8146306F810700F18F80FDF786FE56
:10695000A0EB09004045F5D37EE7FDF77FFE8146B9
:10696000306F810740F18180FDF778FEA0EB0900D0
:106970004045F5D370E7FDF771FE401B022840F259
:10698000878069E7FDF76AFE001B022840F29880C5
:1069900062E700203866FDF761FE04463068810139
:1069A00040F19280FDF75AFE001B0228F6D953E70A
:1069B00001281FD07068E26900F48001914202BF93
:1069C00000F03F01226A914201BF47F6C0710140C9
:1069D000626AB1EB821F0DD1A26A520800F4403105
:1069E000521EB1EB024F02BF00F07060E16AB0EBE3
:1069F000016F69D0012068E0207841073AD5306CFA
:106A00000025C1000AD400950125306C40F080506B
:106A10003064306C00F0805000900098DFF8BC804B
:106A2000D8F80010C8051BD4D8F8000040F48070D6
:106A3000C8F80000FDF712FE8146D8F80010C8051E
:106A40000ED4FDF70BFEA0EB09000228F5D903E7F1
:106A50003068216920F0F80040EAC1003060E6E6C5
:106A6000A06801287FF456AF5AE71DB1306C20F0C2
:106A700080503064A06938B3B16801F00C01082976
:106A800096D0022885D100203866FDF7E7FD05463F
:106A9000306881013FF56FAFE169206AA26A014366
:106AA000606A520841EA8011521EE06A41EA0241DE
:106AB00041EA0061716001213966FDF7CFFD0446AE
:106AC000306881017FF55EAF0020BDE8F28300BF32
:106AD0000038024000004742800E474200700040EC
:106AE00000B500BF130096469446103928BFA0E8B1
:106AF0000C50FAD85FEA417C28BF0CC048BF40F870
:106B0000042BC90728BF20F8022B48BF00F8012B2F
:106B100000BD7047704770477047704770477047B7
:106B200070477047704770470EB4C0B5024603A85F
:106B300000210190009101AB0121044878440C3000
:106B4000FBF714FB06BC5DF810FB00BF73130000DD
:106B500041EC100B01BD80B500F0BCFBF8E7000074
:106B60000CB430B583B0044606A802900A4600254E
:106B70000194009502AB01A9084878441E30FBF748
:106B8000F5FA01990D7000284EBF04460198041BC8
:106B9000204603B030BC5DF80CFB00BFFBC5FFFF17
:106BA00051EC100B00B500F003F841EC100B00BDE8
:106BB00040F2FF7C0B0D4DD0634566D230B421EA24
:106BC000035141F4801103F2FD3C5FEA5C0C01D3F8
:106BD00000184941890041EA907180004FF4401447
:106BE0000023E202D50AB1F5100107D46D081DD2C9
:106BF000091B641900184941491BF7D56D080AD2D1
:106C00000919641B00184941491BEFD56D08F7D3DA
:106C100001E0520817D0C01861419B1AAC4100181E
:106C20004941801AA941F4D452080AD0C01AA1419E
:106C30009B186C4100184941801AA941E9D45208B7
:106C4000F4D15B1C6C4161084FEA330001EB0C513D
:106C500030BC704750EA0103FBD030B4B1FA81F385
:106C600011B9B0FA80F41B190B3BB3F120042FBF0C
:106C700000FA04F19940C3F1200420FA04F438BF6B
:106C800021439840D3F101039DE7634514BF50EAC7
:106C9000410CDEE711F5801FDBD8D943AFF300804C
:106CA0007047000038B50724054D296881F48051EC
:106CB00029602820FFF76CFD641EF6D131BD00006D
:106CC000140C024081B00020009000220A48416864
:106CD00041F480414160416801F480410091009994
:106CE0000092036843F080530360006800F0805016
:106CF0000090009801B070474038024078B500F12C
:106D00003C031A78012A01D1022072BD01241C70B3
:106D100002225A7005686E68AC680A6826F0700630
:106D200016436E6002681448824218BFB2F1804F69
:106D300011D0104882421CBF104882420BD00C4830
:106D400082421CBF0E48824205D0084882421CBFC6
:106D50000C48824204D1486824F0800404439460C3
:106D6000012058700020187072BD000000400140E2
:106D7000000C0040000400400000014000080040FA
:106D800000040140001800402DE9984C41EC100B24
:106D90002DED028B43EC182B53EC102B23F000410C
:106DA000B1F5801F82B00DD20022914208BF9042FF
:106DB000009216D06A4651EC100BFCF79FFC41EC98
:106DC000100B0EE0DFF8C844DFF8C87404EB115074
:106DD00000903B40DFF8C004924643EA000B4BECC6
:106DE00010AB53EC102B51EC180BFCF7B5FB41EC3E
:106DF000100B4800009A400D1218E8B1002A1BDD64
:106E000040F2FF7082420DDB9FEDB31B51EC110B82
:106E1000084653EC102B03F00041084353EC112BB0
:106E2000034606E06FF31E5141EA025153EC102B6A
:106E30000B4643EC102B0FE051EC100B21F00041FE
:106E40000022914208BF904206D0009A51EC100BEC
:106E5000FCF7BCFC41EC100B68E000002DE9984CFD
:106E600041EC100B2DED028B43EC182B53EC102B47
:106E700023F00041B1F5801F82B00DD20022914273
:106E800008BF9042009216D06A4651EC100BFCF7F6
:106E900035FC41EC100B0EE0DFF8F443DFF8F4733F
:106EA00004EB115000903B40DFF8EC03924643EABC
:106EB000000B4BEC10AB51EC100B53EC182BFCF708
:106EC000C5FD41EC100B4800009A400D1218E8B1C6
:106ED000002A1BDD40F2FF7082420DDB9FED7E1B1E
:106EE00051EC110B084653EC102B03F00041084302
:106EF00053EC112B034606E06FF31E5141EA025199
:106F000053EC102B0B4643EC102B0FE051EC100B05
:106F100021F000410022914208BF904206D0009A21
:106F200051EC100BFCF752FC41EC100B02B051EC91
:106F3000100BBDEC028BBDE8948C0000F8B52DED74
:106F4000028B002A41EC180B1D4600F0BF8020F098
:106F5000000621F000470020874208BF864200F06B
:106F6000B58048004015401C02D1090300F0AE80F6
:106F7000002A9FED5B0B16D552420FF264370826AC
:106F80001446002C18BF002E57D0E00707D5D7E9CC
:106F9000002351EC100BFCF7DFFA41EC100B6408F6
:106FA0000837761EEDE779DD0FF2343708261446F0
:106FB000E00707D5D7E9002351EC100BFCF7CCFA1A
:106FC00041EC100B64100837761E002C01DD002EFA
:106FD000EED153EC102B51EC180BFFF7D5FE41EC22
:106FE000180B20F0000221F000430020834208BF6C
:106FF000824253D048004015401C01D109034DD0B6
:10700000002C4BDDA54AA64B51EC180BFFF7BCFE3C
:1070100041EC180B20F0000221F0004300208342D5
:1070200008BF82423AD048004015401C01D10903F4
:1070300034D0641E002CE5DC30E053EC102B51EC16
:10704000180BFFF70BFF41EC180B20F0000221F0AA
:1070500000430020834208BF82421FD048004015F1
:10706000401C01D1090319D0C4B18E4A964B51EC92
:10707000180BFFF789FE41EC180B20F0000221F0FD
:1070800000430020834208BF824207D048004015D9
:10709000401C01D1090301D0641EE6D151EC180B4C
:1070A00020F0000221F000430020834208BF82420A
:1070B00005D048004015401C08D1090306D1AFF3A4
:1070C00000801DB1286840F00100286051EC180BC9
:1070D000BDEC028BF4BD0000000000000000F07F5A
:1070E000000000000000F03F2DE9F14D81B05FEAA3
:1070F00003082DED028B84B01CBF0020C8F80000EF
:10710000079D0C46934607A800F00EF9C11020F029
:107110000800012801F0010A30D10220009001ABE3
:1071200007992246284600F091F9040008BF9FED18
:10713000670B1ED00298FCF705FC022C41EC100BEB
:1071400017DB03AF661E9FED588B51EC100B53EC11
:10715000182BFCF701FA044657F8040B0D46FCF710
:10716000F1FB22462B46FCF7BBFD761E41EC100BD3
:10717000EBD10198434600EB0B0266E002286BD18D
:10718000009001AB07992246284600F043FA04001C
:1071900008BF9FED4E0B1ED00298FCF7D3FB022CCC
:1071A00041EC100B17DB03AF661E9FED418B51ECDA
:1071B000100B53EC182BFCF7CFF9044657F8040BCF
:1071C0000D46FCF7BFFB22462B46FCF789FD761ED9
:1071D00041EC100BEBD151EC100B019C4800400D21
:1071E00004EB00021DD0002A1BDD40F2FF7082423A
:1071F0000DDB9FED311B51EC110B084653EC102BAE
:1072000003F00041084353EC112B034606E06FF3F3
:107210001E5141EA025153EC102B0B4643EC102B4C
:1072200011E051EC100B20F0000221F0004300208F
:10723000834208BF824206D0224651EC100BFCF775
:10724000C5FA41EC100B43465A4651EC100BFFF7C0
:1072500075FE41EC100B0AE0032808BF9FED160BEA
:1072600005D004280CBF9FED160B9FED180BBAF14B
:10727000000F05D051EC100B81F0004141EC100BD8
:1072800004B051EC100BBDEC028BBDE8FC8D00008E
:1072900002FCFFFFFFFF0F800000E03F3CBF737F59
:1072A000DD4F1575436FAC640000000065CDCD4126
:1072B000000000000000B041000000000000F07F6E
:1072C000FFFFFFFFFFFFFF7F2806C80A0000000046
:1072D0000000000000230022002105E7000000005C
:1072E00000000000000024400000000000005940A1
:1072F000000000000088C3400000000084D79741D0
:107300000080E03779C34143176E05B5B5B89346A1
:10731000F5F93FE9034F384D321D30F94877825A6D
:107320003CBF737FDD4F15752DE9F84305460C46CC
:107330002E68002700E0761C307800F077FA0028ED
:10734000F9D130782D280CBF08272B2800D1761CC6
:10735000307840F020016E2927D1707840F020006D
:10736000612802BFB07840F020006E2802D02E685D
:10737000002746E0F61CB046042798F800002828AD
:107380003FD118F8019F484600F05AFA0028F8D17A
:10739000A9F130000A28F4D398F800005F28F0D053
:1073A00029282ED108F101062BE069292CD170780B
:1073B00040F020006E2802BFB07840F02000662820
:1073C00002D02E6800271CE016F8030F40F02000C2
:1073D000692802BF707840F020006E2847F003074C
:1073E0000FD1B07840F02000692802BFF07840F05B
:1073F0002000742805D1307940F02000792808BF9A
:10740000761DF4B126601CE0302802BF707840F091
:107410002000782813D1B01C01782E2908BF401C09
:107420000078A0F16101062921BFA0F14102062ADE
:1074300030380A2803D2B61C47F0020701E047F0B3
:1074400001072E603846BDE8F28300002DE9F14FB8
:107450008CB09246169A02EBC20200202D2AC8BFB9
:107460002D22186083465860002501E0491C012543
:107470000C78302CFAD000241F460B78A3F130068C
:107480000A2E80F09780944207DB3B685B1C3B60D0
:107490000B78302B05D0012003E0303B0DF8043091
:1074A000641C491C0125E8E73868401E3860761CDA
:1074B000012530783028F7D03078A0F130010A2942
:1074C00080F08780444507DA30380DF80400641CEA
:1074D0003968491E396003E0302818BF4FF00109B0
:1074E000761C0125E8E70DF1FF31095D49B93A68DD
:1074F000521C3A60641E002CF5DC04BF8DF800B00D
:10750000012400284BD0092394FBF3F3C4F10901B3
:1075100003EBC3035918092291FBF2F202EBC202FA
:10752000DC468A1A18BF4FF0010B5A468B46A44519
:107530005DDA09219BFBF1F11DF80C3001EBC10173
:10754000BBEB01011DBF57F8221001EB810103EBDA
:107550004103521C47F822300BF1010B0CF1010CD6
:10756000E5E700240025DFF8A8C0314608E06545BE
:1075700004DA05EB850402EB4405303D491C012487
:107580000A78A2F130060A2EF1D30E46BEF12D0F75
:10759000396808BF6D426D183D6004B91E46BAF1E6
:1075A000000F03D000B90C9ECAF8006058460DB019
:1075B000BDE8F08F0E4690468146FBF7D9FD406A44
:1075C00031780278914208BF761C002C7FF474AFAA
:1075D0006FE75FEA090128468DD00DF1FF310DF10B
:1075E000FF3211F80810491C02F8081083E73178BF
:1075F00041F0200165299346D1D1334616F8011F89
:107600002B2916BF2D2916F801EB4FF02B0EA8E7FA
:1076100000E1F5052DE9FD4D8BB04FF00008169EF9
:10762000C3F80080C6EBC606232EC8BF2326C3F8C6
:107630000480C24602E0491C4FF0010A0878302855
:10764000F9D00FF2B8150FF2CC10C3460A95099085
:107650000F461C46397816222846FBF7DFFD002826
:1076600000F09A805E4503DA2068401C206007E045
:107670000A9A0999801A085C0DF80B000BF1010BAE
:107680007F1C4FF0010AE5E72068401E20607F1C48
:107690004FF0010A38783028F6D03978162228467B
:1076A000FBF7BCFD002800F084805E450ADB0FF28A
:1076B0006411401B085C0DF80B000BF1010B2168F5
:1076C000491E21607F1C4FF0010AE6E70DF1FF32F1
:1076D000525C4AB923685B1C2360491E0029F5DC13
:1076E00004BF8DF80080012122689200BAF1000FDA
:1076F000226046D04FF0070C91FBFCFCC1F107055E
:10770000CCEBCC0C6544072295FBF2F20023C2EBD4
:10771000C202AA1A18BF4FF00108C4468B4259DAB8
:10772000072295FBF2F21DF80300C2EBC202AA1A6F
:107730001ABF54F82C2000EB02100CF1010C44F895
:107740002C006D1C5B1CE9E7002300252A48394604
:1077500008E0854204DA05EB850307EB4305303D7D
:10776000491C01230F78A7F130060A2EF1D30F46EA
:10777000BCF12D0F216808BF6D426D18256003B95B
:1077800017460C9921B1BAF1000F08BF0B9F0F608B
:1077900040460EB0BDE8F08DFBF7EAFC406A397850
:1077A0000278914208BF7F1CBBF1000F7FF475AFD8
:1077B00070E759468E4291DA1DF80610072904DD5C
:1077C0000DF1FF32915D491C915531462268521CE2
:1077D000226083E7397841F020017029E046D0D15A
:1077E0003A4617F8011F2B2916BF2D2917F801CB90
:1077F0004FF02B0CA8E7000000E1F50530313233E3
:1078000034353637383961626364656641424344D2
:1078100045460000000102030405060708090A0B9B
:107820000C0D0E0F0A0B0C0D0E0F000010B50446C8
:10783000FBF76AFC01462046096ABDE8104008478C
:1078400010B50446FBF760FC014620460969BDE817
:107850001040084780B5002201E080B501220121D7
:10786000DFF84805FDF747FBBDE802400120FEF7C1
:107870008FBF01B500F027F8642301226946FDF7A8
:1078800009FE01BD38B5DFF828450A4621688D6834
:10789000AB07FCD50146204601B0BDE8304064236B
:1078A000FDF7F8BDE0B5FF208DF8050000F00BF8FE
:1078B00064210091012301AA0DF10501FDF77FFE6E
:1078C0009DF804000EBDDFF8E80401688A6893079C
:1078D000FCD5704710B5DFF8DC444FF4FA70208017
:1078E000FFF7E0FFFF281CBF21880029F8D110BD59
:1078F0001CB5FFF7B2FF0A24FF20FFF7BAFF641E92
:10790000FAD1FFF7A7FF40208DF800000021952055
:107910008DF80110ADF802108DF804108DF80500F7
:1079200006216846FFF7AEFF41F6FF74FFF7BAFF86
:10793000012818BF002C18BF641EF7D1FFF78DFF78
:10794000FF20FFF796FFDFF870140120887013BD49
:1079500070B50446DFF86464C8200D463080FFF738
:10796000A1FFFF2804D130880028F8D1002070BD85
:10797000FE28FBD1FFF796FF04F8010B2846451EB1
:107980000028F7D1FFF78EFFFFF78CFF012070BDB5
:1079900070B504460D46FFF79DFFFF2821D128460C
:1079A000FFF767FFFD2D16D04FF400712046FFF75B
:1079B00069FFFFF777FFFFF775FF4124FFF772FFBD
:1079C000064606F01F00052801D0641EF6D1FFF719
:1079D00069FF0028FBD006F01F06052E01D101200B
:1079E00070BD002070BD38B504460D46FFF772FF2C
:1079F000FF2801D0FF2032BD2046FFF73AFF280EB6
:107A0000FFF737FF2802000EFFF733FF2804000EB0
:107A1000FFF72FFFE8B2FFF72CFF402C08BF95209F
:107A200003D0482C0CBF87200120FFF722FF4C2CED
:107A300008BFFFF737FF0A24FFF734FF010601D51F
:107A4000641EF9D132BDF8B508B10120F2BDDFF8EE
:107A50006853287881077BD4FFF74AFFFFF7FAFEC7
:107A600000214020FFF7BFFF0024012863D1DFF889
:107A70004C634FF47A7030804FF4D5714820FFF793
:107A8000B2FF012832D10027FFF70CFF0DF80700E5
:107A90007F1C032FF8DD9DF80200012804BF9DF82C
:107AA0000310AA2947D100F0E7F8022804DA4FF0C2
:107AB000804100F050F810B130880028F3D13188AF
:107AC000002938D000217A20FFF78DFF002832D11D
:107AD000FFF7E8FE0DF80400641C032CF8DD9DF8A8
:107AE0000000410654BF04240C2424E000F0C4F834
:107AF000022805DA00F02EF80228B8BF022409DBBC
:107B0000012400214120FFF76EFF58B1308848B1B1
:107B1000022CF6D100F0B0F80228F7DA00F01AF8DB
:107B20000028F3D1308828B14FF400715020FFF7BE
:107B30005AFF00B100246C70FFF78FFEFFF7B2FE12
:107B400024B1287800F0FE00287001E00021A9701F
:107B50002878F2BD0021692045E708B1012070476F
:107B600095480078704770B50D4616461C4600B91A
:107B70000CB9042070BD90480178CA0701D50320D4
:107B800070BD4078410758BF7602FFF763FE012CB5
:107B9000314608D15120FFF726FF98B900F01BF8B5
:107BA00080B100240EE05220FFF71DFF50B900F015
:107BB00012F818B1641E05F50075F8D100214C20AB
:107BC000FFF711FFFFF749FEFFF76CFE200018BF1B
:107BD0000120C0B270BD4FF400712846B8E6F8B578
:107BE0000D4616461C4600B90CB90420F2BD724F72
:107BF0003878C10701D50320F2BD3878410701D597
:107C00000220F2BD7878410758BF7602FFF722FEC6
:107C1000012C0BD131465820FFF7E5FE18BBFE21A1
:107C20002846FFF7B5FEF0B100241CE07878810704
:107C300005D500F021F821465720FFF7D4FE314644
:107C40005920FFF7D0FE70B9FC212846FFF7A0FEAF
:107C500018B1641E05F50075F6D1FD210020FFF76F
:107C600097FE00B90124FFF7F8FDFFF71BFE200087
:107C700018BF0120C0B2F2BD00217720B3E6F8B5ED
:107C8000144684B00E46254608B104208BE0012737
:107C9000052E494810D1297819B1022906D002D3FE
:107CA00008E0817004E0FFF723FE01E0807868704F
:107CB000002777E0042775E00078C10748BF03205C
:107CC00071D4FFF7C7FD002E47D0012E08D0022E39
:107CD0003FD00B2E46D00C2E47D00D2E51D05CE05D
:107CE00000214920FFF77FFE002857D11021684668
:107CF000FFF72EFE002851D09DF800309DF80810A7
:107D00009DF809209B09012B06D102EB0120401CA4
:107D100000048009206032E09DF807309DF806508D
:107D20009DF80A009B00AD0203EB91119DF8053010
:107D300005F4406503F00F035200691803EBD013FC
:107D400002F00602491CD21889B2D01F814021607E
:107D500015E04FF40070208011E0FFF7BBFDFF2815
:107D60001CD10CE00021492001E000214A20FFF74E
:107D70003AFE98B910212846FFF7EAFD70B10027B6
:107D80000CE000217A20FFF72EFE30B90424FFF723
:107D900089FD641E05F8010BF9D10427FFF75DFD8D
:107DA000FFF780FD384605B0F0BD0000000402403A
:107DB000403D0020363F002094220020343F002028
:107DC00019E050F8042BD30744BFA9F101039A1816
:107DD000091F0023042942F8043BF9D25FEA817CA1
:107DE000134604D54FF0000CA2F800C09B1CC90735
:107DF00044BF0021197050F8041B0029E1D17047DD
:107E000010B5074979441831064C7C44163404E017
:107E10000A68081D114488470146A142F8D110BDE7
:107E20002C000000480000004EF68851CEF2000100
:107E3000086840F470000860BFF34F8FBFF36F8F86
:107E40004FF00070E1EE100A7047000075FFFFFF71
:107E5000A81C000098220020000000005F9DFFFF8A
:107E6000EA010000E601000000000020024801686D
:107E700041F470010160704788ED00E000000000EF
:107E800000000000010203040607080900F00DF8D5
:107E9000002801D0FFF7B4FFAFF300800020AFF35C
:107EA0000080FCF7CFFE00F002F80120704700F0E0
:107EB00001B8000007463846FBF7CEFFFBE738B5B0
:107EC00004460D46284600F005F8A84218BF0024D5
:107ED000204632BD0149FCF7ABBE00BF4C2200205A
:107EE000FFF7B1BDFFF739BEFFF73DBEFFF777BE25
:107EF000FFF7C5BE01488047014800476D7E000876
:107F0000057F0008AFF30080FFF78EFFFFF7BEFF8D
:107F1000000000000102030400002E004300FFF7F0
:107F2000FEBFFFF7FEBFFFF7FEBFFFF7FEBFFFF785
:107F3000FEBFFFF7FEBFFFF7FEBFFFF7FEBFFFF775
:107F4000FEBFFFF7FEBFFFF7FEBFFFF7FEBFFFF765
:107F5000FEBFFFF7FEBFFFF7FEBFFFF7FEBFFFF755
:107F6000FEBFFFF7FEBFFFF7FEBFFFF7FEBFFFF745
:107F7000FEBFFFF7FEBFFFF7FEBFFFF7FEBFFFF735
:107F8000FEBFFFF7FEBFFFF7FEBFFFF7FEBFFFF725
:107F9000FEBFFFF7FEBFFFF7FEBFFFF7FEBFFFF715
:107FA000FEBFFFF7FEBFFFF7FEBFFFF7FEBFFFF705
:107FB000FEBFFFF7FEBFFFF7FEBFFFF7FEBFFFF7F5
:107FC000FEBFFFF7FEBFFFF7FEBFFFF7FEBFFFF7E5
:107FD000FEBFFFF7FEBFFFF7FEBFFFF7FEBFFFF7D5
:107FE000FEBFFFF7FEBFFFF7FEBFFFF7FEBFFFF7C5
:107FF000FEBFFFF7FEBFFFF7FEBFFFF7FEBFFFF7B5
:10800000FEBFFFF7FEBFFFF7FEBFFFF7FEBFFFF7A4
:10801000FEBFFFF7FEBFFFF7FEBFFFF7FEBFFFF794
:10802000FEBFFFF7FEBFFFF7FEBFFFF7FEBFFFF784
:10803000FEBFFFF7FEBFFFF7FEBFFFF7FEBFFFF774
:10804000FEBFFFF7FEBFFFF7FEBFF28C0001C3F0DB
:108050003FA0F019FFF0BF42796C4952BBFFBF1639
:108060008E9AC5C4F7EF3F2BD6E3CA7476403F0023
:1080700001F1FF01F1FF01F1FF01F1FF01F1FF014A
:10808000F1FF01F1FF01F1FF01F1FF01F1FF01F14A
:10809000FF01F1FF01F1FF01F1FF01F1FF01F1FF2C
:1080A00001F1FF01F1FF01F1FF01F1FF01F1FF011A
:1080B000F1FF01F1FF01F1FF01F1FF01F1FF01F11A
:1080C000FF01F1FF01F1FF01F1EE015E01E120226C
:1080D0001008100624F400E17E0008E50412E9040B
:1080E00012ED0412F104F309187F0452FF01F200AB
:1080F0001A14100100001C0C21602002CC21002069
:108100005F2002DF3000080852D90812F50852DD5E
:108110000C610152CD1043BB303C21011007020419
:108120000101983D0020E804529804211B61084099
:0D81300004902200207C220CF10B01115064
:0400000508007F056B
:00000001FF
